{
  "_format": "hh-sol-artifact-1",
  "contractName": "Casino",
  "sourceName": "src/backend/contracts/Casino.sol",
  "abi": [
    {
      "inputs": [],
      "stateMutability": "nonpayable",
      "type": "constructor"
    },
    {
      "anonymous": false,
      "inputs": [
        {
          "indexed": true,
          "internalType": "address",
          "name": "previousOwner",
          "type": "address"
        },
        {
          "indexed": true,
          "internalType": "address",
          "name": "newOwner",
          "type": "address"
        }
      ],
      "name": "OwnershipTransferred",
      "type": "event"
    },
    {
      "anonymous": false,
      "inputs": [
        {
          "indexed": false,
          "internalType": "uint256",
          "name": "NumberWin",
          "type": "uint256"
        },
        {
          "indexed": false,
          "internalType": "bool",
          "name": "result",
          "type": "bool"
        },
        {
          "indexed": false,
          "internalType": "uint256",
          "name": "tokensEarned",
          "type": "uint256"
        }
      ],
      "name": "RouletteGame",
      "type": "event"
    },
    {
      "inputs": [],
      "name": "balanceEthersSC",
      "outputs": [
        {
          "internalType": "uint256",
          "name": "",
          "type": "uint256"
        }
      ],
      "stateMutability": "view",
      "type": "function"
    },
    {
      "inputs": [
        {
          "internalType": "uint256",
          "name": "_numTokens",
          "type": "uint256"
        }
      ],
      "name": "compraTokens",
      "outputs": [],
      "stateMutability": "payable",
      "type": "function"
    },
    {
      "inputs": [
        {
          "internalType": "uint256",
          "name": "_numTokens",
          "type": "uint256"
        }
      ],
      "name": "devolverTokens",
      "outputs": [],
      "stateMutability": "payable",
      "type": "function"
    },
    {
      "inputs": [],
      "name": "getAdress",
      "outputs": [
        {
          "internalType": "address",
          "name": "",
          "type": "address"
        }
      ],
      "stateMutability": "view",
      "type": "function"
    },
    {
      "inputs": [
        {
          "internalType": "uint256",
          "name": "_start",
          "type": "uint256"
        },
        {
          "internalType": "uint256",
          "name": "_end",
          "type": "uint256"
        },
        {
          "internalType": "uint256",
          "name": "_tokensBet",
          "type": "uint256"
        }
      ],
      "name": "jugarRuleta",
      "outputs": [],
      "stateMutability": "nonpayable",
      "type": "function"
    },
    {
      "inputs": [],
      "name": "owner",
      "outputs": [
        {
          "internalType": "address",
          "name": "",
          "type": "address"
        }
      ],
      "stateMutability": "view",
      "type": "function"
    },
    {
      "inputs": [
        {
          "internalType": "uint256",
          "name": "_numTokens",
          "type": "uint256"
        }
      ],
      "name": "precioTokens",
      "outputs": [
        {
          "internalType": "uint256",
          "name": "",
          "type": "uint256"
        }
      ],
      "stateMutability": "pure",
      "type": "function"
    },
    {
      "inputs": [],
      "name": "renounceOwnership",
      "outputs": [],
      "stateMutability": "nonpayable",
      "type": "function"
    },
    {
      "inputs": [
        {
          "internalType": "uint256",
          "name": "_numEther",
          "type": "uint256"
        }
      ],
      "name": "retirarEth",
      "outputs": [],
      "stateMutability": "payable",
      "type": "function"
    },
    {
      "inputs": [],
      "name": "tokenAddress",
      "outputs": [
        {
          "internalType": "address",
          "name": "",
          "type": "address"
        }
      ],
      "stateMutability": "view",
      "type": "function"
    },
    {
      "inputs": [
        {
          "internalType": "address",
          "name": "_of",
          "type": "address"
        }
      ],
      "name": "tokenBalance",
      "outputs": [
        {
          "internalType": "uint256",
          "name": "",
          "type": "uint256"
        }
      ],
      "stateMutability": "view",
      "type": "function"
    },
    {
      "inputs": [
        {
          "internalType": "address",
          "name": "newOwner",
          "type": "address"
        }
      ],
      "name": "transferOwnership",
      "outputs": [],
      "stateMutability": "nonpayable",
      "type": "function"
    },
    {
      "inputs": [
        {
          "internalType": "address",
          "name": "_propietario",
          "type": "address"
        }
      ],
      "name": "tuHistorial",
      "outputs": [
        {
          "components": [
            {
              "internalType": "uint256",
              "name": "tokensBet",
              "type": "uint256"
            },
            {
              "internalType": "uint256",
              "name": "tokensEarned",
              "type": "uint256"
            },
            {
              "internalType": "string",
              "name": "game",
              "type": "string"
            }
          ],
          "internalType": "struct Casino.Bet[]",
          "name": "",
          "type": "tuple[]"
        }
      ],
      "stateMutability": "view",
      "type": "function"
    }
  ],
  "bytecode": "0x60806040523480156200001157600080fd5b506200003262000026620001b960201b60201c565b620001c160201b60201c565b604051620000409062000285565b6200004b9062000344565b604051809103906000f08015801562000068573d6000803e3d6000fd5b50600160006101000a81548173ffffffffffffffffffffffffffffffffffffffff021916908373ffffffffffffffffffffffffffffffffffffffff160217905550600160009054906101000a900473ffffffffffffffffffffffffffffffffffffffff16600260006101000a81548173ffffffffffffffffffffffffffffffffffffffff021916908373ffffffffffffffffffffffffffffffffffffffff160217905550600160009054906101000a900473ffffffffffffffffffffffffffffffffffffffff1673ffffffffffffffffffffffffffffffffffffffff1663a0712d68620f42406040518263ffffffff1660e01b81526004016200016c9190620003d2565b6020604051808303816000875af11580156200018c573d6000803e3d6000fd5b505050506040513d601f19601f82011682018060405250810190620001b2919062000431565b5062000463565b600033905090565b60008060009054906101000a900473ffffffffffffffffffffffffffffffffffffffff169050816000806101000a81548173ffffffffffffffffffffffffffffffffffffffff021916908373ffffffffffffffffffffffffffffffffffffffff1602179055508173ffffffffffffffffffffffffffffffffffffffff168173ffffffffffffffffffffffffffffffffffffffff167f8be0079c531659141344cd1fd0a4f28419497f9722a3daafe3b4186f6b6457e060405160405180910390a35050565b611427806200228583390190565b600082825260208201905092915050565b7f436173696e6f0000000000000000000000000000000000000000000000000000600082015250565b6000620002dc60068362000293565b9150620002e982620002a4565b602082019050919050565b7f4341530000000000000000000000000000000000000000000000000000000000600082015250565b60006200032c60038362000293565b91506200033982620002f4565b602082019050919050565b600060408201905081810360008301526200035f81620002cd565b9050818103602083015262000374816200031d565b9050919050565b6000819050919050565b6000819050919050565b6000819050919050565b6000620003ba620003b4620003ae846200037b565b6200038f565b62000385565b9050919050565b620003cc8162000399565b82525050565b6000602082019050620003e96000830184620003c1565b92915050565b600080fd5b60008115159050919050565b6200040b81620003f4565b81146200041757600080fd5b50565b6000815190506200042b8162000400565b92915050565b6000602082840312156200044a5762000449620003ef565b5b60006200045a848285016200041a565b91505092915050565b611e1280620004736000396000f3fe6080604052600436106100c25760003560e01c80638da5cb5b1161007f578063c29dd7c911610059578063c29dd7c914610228578063df54096714610244578063eedc966a14610281578063f2fde38b146102be576100c2565b80638da5cb5b146101a75780639d76ea58146101d2578063b934c384146101fd576100c2565b806321a10444146100c75780632e95161c146100f05780633897b0bc1461010c5780635f375c6c146101285780636b37d36214610165578063715018a614610190575b600080fd5b3480156100d357600080fd5b506100ee60048036038101906100e99190611242565b6102e7565b005b61010a60048036038101906101059190611295565b61073a565b005b61012660048036038101906101219190611295565b610950565b005b34801561013457600080fd5b5061014f600480360381019061014a9190611295565b610a36565b60405161015c91906112d1565b60405180910390f35b34801561017157600080fd5b5061017a610a52565b604051610187919061132d565b60405180910390f35b34801561019c57600080fd5b506101a5610a7c565b005b3480156101b357600080fd5b506101bc610a90565b6040516101c9919061132d565b60405180910390f35b3480156101de57600080fd5b506101e7610ab9565b6040516101f4919061132d565b60405180910390f35b34801561020957600080fd5b50610212610adf565b60405161021f91906112d1565b60405180910390f35b610242600480360381019061023d9190611295565b610afa565b005b34801561025057600080fd5b5061026b60048036038101906102669190611374565b610d96565b6040516102789190611552565b60405180910390f35b34801561028d57600080fd5b506102a860048036038101906102a39190611374565b610eda565b6040516102b591906112d1565b60405180910390f35b3480156102ca57600080fd5b506102e560048036038101906102e09190611374565b610f7f565b005b600160009054906101000a900473ffffffffffffffffffffffffffffffffffffffff1673ffffffffffffffffffffffffffffffffffffffff166370a08231336040518263ffffffff1660e01b8152600401610342919061132d565b602060405180830381865afa15801561035f573d6000803e3d6000fd5b505050506040513d601f19601f820116820180604052508101906103839190611589565b81111561038f57600080fd5b6000811161039c57600080fd5b6000600e426040516020016103b191906115d7565b6040516020818303038152906040528051906020012060001c6103d49190611621565b9050600080600160009054906101000a900473ffffffffffffffffffffffffffffffffffffffff1673ffffffffffffffffffffffffffffffffffffffff1663beabacc83330876040518463ffffffff1660e01b815260040161043893929190611652565b6020604051808303816000875af1158015610457573d6000803e3d6000fd5b505050506040513d601f19601f8201168201806040525081019061047b91906116c1565b5084831115801561048c5750858310155b156106b65760019050600083036104b157600e846104aa919061171d565b91506104c1565b6002846104be919061171d565b91505b81600160009054906101000a900473ffffffffffffffffffffffffffffffffffffffff1673ffffffffffffffffffffffffffffffffffffffff166370a08231306040518263ffffffff1660e01b815260040161051d919061132d565b602060405180830381865afa15801561053a573d6000803e3d6000fd5b505050506040513d601f19601f8201168201806040525081019061055e9190611589565b101561061257600160009054906101000a900473ffffffffffffffffffffffffffffffffffffffff1673ffffffffffffffffffffffffffffffffffffffff1663a0712d68620186a0846105b1919061171d565b6040518263ffffffff1660e01b81526004016105cd91906112d1565b6020604051808303816000875af11580156105ec573d6000803e3d6000fd5b505050506040513d601f19601f8201168201806040525081019061061091906116c1565b505b600160009054906101000a900473ffffffffffffffffffffffffffffffffffffffff1673ffffffffffffffffffffffffffffffffffffffff1663beabacc83033856040518463ffffffff1660e01b815260040161067193929190611652565b6020604051808303816000875af1158015610690573d6000803e3d6000fd5b505050506040513d601f19601f820116820180604052508101906106b491906116c1565b505b6106f76040518060400160405280600781526020017f526f756c65746500000000000000000000000000000000000000000000000000815250858433611002565b7fd25d6b7f2fbc40564b21f40e1d506ff3d5276071da39d3def6b88f6ee8a3965983828460405161072a9392919061176e565b60405180910390a1505050505050565b6000811161077d576040517f08c379a000000000000000000000000000000000000000000000000000000000815260040161077490611828565b60405180910390fd5b600160009054906101000a900473ffffffffffffffffffffffffffffffffffffffff1673ffffffffffffffffffffffffffffffffffffffff166370a08231336040518263ffffffff1660e01b81526004016107d8919061132d565b602060405180830381865afa1580156107f5573d6000803e3d6000fd5b505050506040513d601f19601f820116820180604052508101906108199190611589565b81111561085b576040517f08c379a0000000000000000000000000000000000000000000000000000000008152600401610852906118ba565b60405180910390fd5b600160009054906101000a900473ffffffffffffffffffffffffffffffffffffffff1673ffffffffffffffffffffffffffffffffffffffff1663beabacc83330846040518463ffffffff1660e01b81526004016108ba93929190611652565b6020604051808303816000875af11580156108d9573d6000803e3d6000fd5b505050506040513d601f19601f820116820180604052508101906108fd91906116c1565b503373ffffffffffffffffffffffffffffffffffffffff166108fc61092183610a36565b9081150290604051600060405180830381858888f1935050505015801561094c573d6000803e3d6000fd5b5050565b6109586110bd565b6000811161099b576040517f08c379a000000000000000000000000000000000000000000000000000000000815260040161099290611828565b60405180910390fd5b6109a3610adf565b8111156109e5576040517f08c379a00000000000000000000000000000000000000000000000000000000081526004016109dc906118ba565b60405180910390fd5b6109ed610a90565b73ffffffffffffffffffffffffffffffffffffffff166108fc829081150290604051600060405180830381858888f19350505050158015610a32573d6000803e3d6000fd5b5050565b600066038d7ea4c6800082610a4b919061171d565b9050919050565b6000600160009054906101000a900473ffffffffffffffffffffffffffffffffffffffff16905090565b610a846110bd565b610a8e600061113b565b565b60008060009054906101000a900473ffffffffffffffffffffffffffffffffffffffff16905090565b600260009054906101000a900473ffffffffffffffffffffffffffffffffffffffff1681565b6000670de0b6b3a764000047610af591906118da565b905090565b610b0381610a36565b341015610b45576040517f08c379a0000000000000000000000000000000000000000000000000000000008152600401610b3c9061197d565b60405180910390fd5b80600160009054906101000a900473ffffffffffffffffffffffffffffffffffffffff1673ffffffffffffffffffffffffffffffffffffffff166370a08231306040518263ffffffff1660e01b8152600401610ba1919061132d565b602060405180830381865afa158015610bbe573d6000803e3d6000fd5b505050506040513d601f19601f82011682018060405250810190610be29190611589565b1015610c9657600160009054906101000a900473ffffffffffffffffffffffffffffffffffffffff1673ffffffffffffffffffffffffffffffffffffffff1663a0712d68620186a083610c35919061171d565b6040518263ffffffff1660e01b8152600401610c5191906112d1565b6020604051808303816000875af1158015610c70573d6000803e3d6000fd5b505050506040513d601f19601f82011682018060405250810190610c9491906116c1565b505b3373ffffffffffffffffffffffffffffffffffffffff166108fc610cb983610a36565b34610cc4919061199d565b9081150290604051600060405180830381858888f19350505050158015610cef573d6000803e3d6000fd5b50600160009054906101000a900473ffffffffffffffffffffffffffffffffffffffff1673ffffffffffffffffffffffffffffffffffffffff1663beabacc83033846040518463ffffffff1660e01b8152600401610d4f93929190611652565b6020604051808303816000875af1158015610d6e573d6000803e3d6000fd5b505050506040513d601f19601f82011682018060405250810190610d9291906116c1565b5050565b6060600360008373ffffffffffffffffffffffffffffffffffffffff1673ffffffffffffffffffffffffffffffffffffffff168152602001908152602001600020805480602002602001604051908101604052809291908181526020016000905b82821015610ecf57838290600052602060002090600302016040518060600160405290816000820154815260200160018201548152602001600282018054610e3e90611a00565b80601f0160208091040260200160405190810160405280929190818152602001828054610e6a90611a00565b8015610eb75780601f10610e8c57610100808354040283529160200191610eb7565b820191906000526020600020905b815481529060010190602001808311610e9a57829003601f168201915b50505050508152505081526020019060010190610df7565b505050509050919050565b6000600160009054906101000a900473ffffffffffffffffffffffffffffffffffffffff1673ffffffffffffffffffffffffffffffffffffffff166370a08231836040518263ffffffff1660e01b8152600401610f37919061132d565b602060405180830381865afa158015610f54573d6000803e3d6000fd5b505050506040513d601f19601f82011682018060405250810190610f789190611589565b9050919050565b610f876110bd565b600073ffffffffffffffffffffffffffffffffffffffff168173ffffffffffffffffffffffffffffffffffffffff1603610ff6576040517f08c379a0000000000000000000000000000000000000000000000000000000008152600401610fed90611aa3565b60405180910390fd5b610fff8161113b565b50565b60006040518060600160405280858152602001848152602001868152509050600360008373ffffffffffffffffffffffffffffffffffffffff1673ffffffffffffffffffffffffffffffffffffffff168152602001908152602001600020819080600181540180825580915050600190039060005260206000209060030201600090919091909150600082015181600001556020820151816001015560408201518160020190816110b39190611c9e565b5050505050505050565b6110c56111ff565b73ffffffffffffffffffffffffffffffffffffffff166110e3610a90565b73ffffffffffffffffffffffffffffffffffffffff1614611139576040517f08c379a000000000000000000000000000000000000000000000000000000000815260040161113090611dbc565b60405180910390fd5b565b60008060009054906101000a900473ffffffffffffffffffffffffffffffffffffffff169050816000806101000a81548173ffffffffffffffffffffffffffffffffffffffff021916908373ffffffffffffffffffffffffffffffffffffffff1602179055508173ffffffffffffffffffffffffffffffffffffffff168173ffffffffffffffffffffffffffffffffffffffff167f8be0079c531659141344cd1fd0a4f28419497f9722a3daafe3b4186f6b6457e060405160405180910390a35050565b600033905090565b600080fd5b6000819050919050565b61121f8161120c565b811461122a57600080fd5b50565b60008135905061123c81611216565b92915050565b60008060006060848603121561125b5761125a611207565b5b60006112698682870161122d565b935050602061127a8682870161122d565b925050604061128b8682870161122d565b9150509250925092565b6000602082840312156112ab576112aa611207565b5b60006112b98482850161122d565b91505092915050565b6112cb8161120c565b82525050565b60006020820190506112e660008301846112c2565b92915050565b600073ffffffffffffffffffffffffffffffffffffffff82169050919050565b6000611317826112ec565b9050919050565b6113278161130c565b82525050565b6000602082019050611342600083018461131e565b92915050565b6113518161130c565b811461135c57600080fd5b50565b60008135905061136e81611348565b92915050565b60006020828403121561138a57611389611207565b5b60006113988482850161135f565b91505092915050565b600081519050919050565b600082825260208201905092915050565b6000819050602082019050919050565b6113d68161120c565b82525050565b600081519050919050565b600082825260208201905092915050565b60005b838110156114165780820151818401526020810190506113fb565b60008484015250505050565b6000601f19601f8301169050919050565b600061143e826113dc565b61144881856113e7565b93506114588185602086016113f8565b61146181611422565b840191505092915050565b600060608301600083015161148460008601826113cd565b50602083015161149760208601826113cd565b50604083015184820360408601526114af8282611433565b9150508091505092915050565b60006114c8838361146c565b905092915050565b6000602082019050919050565b60006114e8826113a1565b6114f281856113ac565b935083602082028501611504856113bd565b8060005b85811015611540578484038952815161152185826114bc565b945061152c836114d0565b925060208a01995050600181019050611508565b50829750879550505050505092915050565b6000602082019050818103600083015261156c81846114dd565b905092915050565b60008151905061158381611216565b92915050565b60006020828403121561159f5761159e611207565b5b60006115ad84828501611574565b91505092915050565b6000819050919050565b6115d16115cc8261120c565b6115b6565b82525050565b60006115e382846115c0565b60208201915081905092915050565b7f4e487b7100000000000000000000000000000000000000000000000000000000600052601260045260246000fd5b600061162c8261120c565b91506116378361120c565b925082611647576116466115f2565b5b828206905092915050565b6000606082019050611667600083018661131e565b611674602083018561131e565b61168160408301846112c2565b949350505050565b60008115159050919050565b61169e81611689565b81146116a957600080fd5b50565b6000815190506116bb81611695565b92915050565b6000602082840312156116d7576116d6611207565b5b60006116e5848285016116ac565b91505092915050565b7f4e487b7100000000000000000000000000000000000000000000000000000000600052601160045260246000fd5b60006117288261120c565b91506117338361120c565b92508282026117418161120c565b91508282048414831517611758576117576116ee565b5b5092915050565b61176881611689565b82525050565b600060608201905061178360008301866112c2565b611790602083018561175f565b61179d60408301846112c2565b949350505050565b600082825260208201905092915050565b7f4e6563657369746173206465766f6c76657220756e206e756d65726f2064652060008201527f746f6b656e73206d61796f722061203000000000000000000000000000000000602082015250565b60006118126030836117a5565b915061181d826117b6565b604082019050919050565b6000602082019050818103600083015261184181611805565b9050919050565b7f4e6f207469656e6573206c6f7320746f6b656e7320717565206465736561732060008201527f6465766f6c766572000000000000000000000000000000000000000000000000602082015250565b60006118a46028836117a5565b91506118af82611848565b604082019050919050565b600060208201905081810360008301526118d381611897565b9050919050565b60006118e58261120c565b91506118f08361120c565b925082611900576118ff6115f2565b5b828204905092915050565b7f436f6d707261206d656e6f7320746f6b656e73206f207061676120636f6e206d60008201527f6173206574686572730000000000000000000000000000000000000000000000602082015250565b60006119676029836117a5565b91506119728261190b565b604082019050919050565b600060208201905081810360008301526119968161195a565b9050919050565b60006119a88261120c565b91506119b38361120c565b92508282039050818111156119cb576119ca6116ee565b5b92915050565b7f4e487b7100000000000000000000000000000000000000000000000000000000600052602260045260246000fd5b60006002820490506001821680611a1857607f821691505b602082108103611a2b57611a2a6119d1565b5b50919050565b7f4f776e61626c653a206e6577206f776e657220697320746865207a65726f206160008201527f6464726573730000000000000000000000000000000000000000000000000000602082015250565b6000611a8d6026836117a5565b9150611a9882611a31565b604082019050919050565b60006020820190508181036000830152611abc81611a80565b9050919050565b7f4e487b7100000000000000000000000000000000000000000000000000000000600052604160045260246000fd5b60008190508160005260206000209050919050565b60006020601f8301049050919050565b600082821b905092915050565b600060088302611b547fffffffffffffffffffffffffffffffffffffffffffffffffffffffffffffffff82611b17565b611b5e8683611b17565b95508019841693508086168417925050509392505050565b6000819050919050565b6000611b9b611b96611b918461120c565b611b76565b61120c565b9050919050565b6000819050919050565b611bb583611b80565b611bc9611bc182611ba2565b848454611b24565b825550505050565b600090565b611bde611bd1565b611be9818484611bac565b505050565b5b81811015611c0d57611c02600082611bd6565b600181019050611bef565b5050565b601f821115611c5257611c2381611af2565b611c2c84611b07565b81016020851015611c3b578190505b611c4f611c4785611b07565b830182611bee565b50505b505050565b600082821c905092915050565b6000611c7560001984600802611c57565b1980831691505092915050565b6000611c8e8383611c64565b9150826002028217905092915050565b611ca7826113dc565b67ffffffffffffffff811115611cc057611cbf611ac3565b5b611cca8254611a00565b611cd5828285611c11565b600060209050601f831160018114611d085760008415611cf6578287015190505b611d008582611c82565b865550611d68565b601f198416611d1686611af2565b60005b82811015611d3e57848901518255600182019150602085019450602081019050611d19565b86831015611d5b5784890151611d57601f891682611c64565b8355505b6001600288020188555050505b505050505050565b7f4f776e61626c653a2063616c6c6572206973206e6f7420746865206f776e6572600082015250565b6000611da66020836117a5565b9150611db182611d70565b602082019050919050565b60006020820190508181036000830152611dd581611d99565b905091905056fea26469706673582212204886bb16700770fc6764dbb785300751245ae7e9f87624d68e7d6b4e91b872f264736f6c6343000812003360806040523480156200001157600080fd5b506040516200142738038062001427833981810160405281019062000037919062000237565b816002908162000048919062000507565b5080600390816200005a919062000507565b5033600460006101000a81548173ffffffffffffffffffffffffffffffffffffffff021916908373ffffffffffffffffffffffffffffffffffffffff1602179055505050620005ee565b6000604051905090565b600080fd5b600080fd5b600080fd5b600080fd5b6000601f19601f8301169050919050565b7f4e487b7100000000000000000000000000000000000000000000000000000000600052604160045260246000fd5b6200010d82620000c2565b810181811067ffffffffffffffff821117156200012f576200012e620000d3565b5b80604052505050565b600062000144620000a4565b905062000152828262000102565b919050565b600067ffffffffffffffff821115620001755762000174620000d3565b5b6200018082620000c2565b9050602081019050919050565b60005b83811015620001ad57808201518184015260208101905062000190565b60008484015250505050565b6000620001d0620001ca8462000157565b62000138565b905082815260208101848484011115620001ef57620001ee620000bd565b5b620001fc8482856200018d565b509392505050565b600082601f8301126200021c576200021b620000b8565b5b81516200022e848260208601620001b9565b91505092915050565b60008060408385031215620002515762000250620000ae565b5b600083015167ffffffffffffffff811115620002725762000271620000b3565b5b620002808582860162000204565b925050602083015167ffffffffffffffff811115620002a457620002a3620000b3565b5b620002b28582860162000204565b9150509250929050565b600081519050919050565b7f4e487b7100000000000000000000000000000000000000000000000000000000600052602260045260246000fd5b600060028204905060018216806200030f57607f821691505b602082108103620003255762000324620002c7565b5b50919050565b60008190508160005260206000209050919050565b60006020601f8301049050919050565b600082821b905092915050565b6000600883026200038f7fffffffffffffffffffffffffffffffffffffffffffffffffffffffffffffffff8262000350565b6200039b868362000350565b95508019841693508086168417925050509392505050565b6000819050919050565b6000819050919050565b6000620003e8620003e2620003dc84620003b3565b620003bd565b620003b3565b9050919050565b6000819050919050565b6200040483620003c7565b6200041c6200041382620003ef565b8484546200035d565b825550505050565b600090565b6200043362000424565b62000440818484620003f9565b505050565b5b8181101562000468576200045c60008262000429565b60018101905062000446565b5050565b601f821115620004b75762000481816200032b565b6200048c8462000340565b810160208510156200049c578190505b620004b4620004ab8562000340565b83018262000445565b50505b505050565b600082821c905092915050565b6000620004dc60001984600802620004bc565b1980831691505092915050565b6000620004f78383620004c9565b9150826002028217905092915050565b6200051282620002bc565b67ffffffffffffffff8111156200052e576200052d620000d3565b5b6200053a8254620002f6565b620005478282856200046c565b600060209050601f8311600181146200057f57600084156200056a578287015190505b620005768582620004e9565b865550620005e6565b601f1984166200058f866200032b565b60005b82811015620005b95784890151825560018201915060208501945060208101905062000592565b86831015620005d95784890151620005d5601f891682620004c9565b8355505b6001600288020188555050505b505050505050565b610e2980620005fe6000396000f3fe608060405234801561001057600080fd5b50600436106100885760003560e01c80638da5cb5b1161005b5780638da5cb5b1461011757806395d89b4114610135578063a0712d6814610153578063beabacc81461018357610088565b806306fdde031461008d57806318160ddd146100ab578063313ce567146100c957806370a08231146100e7575b600080fd5b6100956101b3565b6040516100a29190610853565b60405180910390f35b6100b3610245565b6040516100c0919061088e565b60405180910390f35b6100d161024f565b6040516100de91906108c5565b60405180910390f35b61010160048036038101906100fc9190610943565b610254565b60405161010e919061088e565b60405180910390f35b61011f61029c565b60405161012c919061097f565b60405180910390f35b61013d6102c2565b60405161014a9190610853565b60405180910390f35b61016d600480360381019061016891906109c6565b610354565b60405161017a9190610a0e565b60405180910390f35b61019d60048036038101906101989190610a29565b6103fb565b6040516101aa9190610a0e565b60405180910390f35b6060600280546101c290610aab565b80601f01602080910402602001604051908101604052809291908181526020018280546101ee90610aab565b801561023b5780601f106102105761010080835404028352916020019161023b565b820191906000526020600020905b81548152906001019060200180831161021e57829003601f168201915b5050505050905090565b6000600154905090565b600090565b60008060008373ffffffffffffffffffffffffffffffffffffffff1673ffffffffffffffffffffffffffffffffffffffff168152602001908152602001600020549050919050565b600460009054906101000a900473ffffffffffffffffffffffffffffffffffffffff1681565b6060600380546102d190610aab565b80601f01602080910402602001604051908101604052809291908181526020018280546102fd90610aab565b801561034a5780601f1061031f5761010080835404028352916020019161034a565b820191906000526020600020905b81548152906001019060200180831161032d57829003601f168201915b5050505050905090565b600033600460009054906101000a900473ffffffffffffffffffffffffffffffffffffffff1673ffffffffffffffffffffffffffffffffffffffff168173ffffffffffffffffffffffffffffffffffffffff16146103e7576040517f08c379a00000000000000000000000000000000000000000000000000000000081526004016103de90610b4e565b60405180910390fd5b6103f13384610413565b6001915050919050565b600061040884848461055a565b600190509392505050565b600073ffffffffffffffffffffffffffffffffffffffff168273ffffffffffffffffffffffffffffffffffffffff1603610482576040517f08c379a000000000000000000000000000000000000000000000000000000000815260040161047990610bba565b60405180910390fd5b80600160008282546104949190610c09565b92505081905550806000808473ffffffffffffffffffffffffffffffffffffffff1673ffffffffffffffffffffffffffffffffffffffff16815260200190815260200160002060008282546104e99190610c09565b925050819055508173ffffffffffffffffffffffffffffffffffffffff16600073ffffffffffffffffffffffffffffffffffffffff167fddf252ad1be2c89b69c2b068fc378daa952ba7f163c4a11628f55a4df523b3ef8360405161054e919061088e565b60405180910390a35050565b600073ffffffffffffffffffffffffffffffffffffffff168373ffffffffffffffffffffffffffffffffffffffff16036105c9576040517f08c379a00000000000000000000000000000000000000000000000000000000081526004016105c090610caf565b60405180910390fd5b600073ffffffffffffffffffffffffffffffffffffffff168273ffffffffffffffffffffffffffffffffffffffff1603610638576040517f08c379a000000000000000000000000000000000000000000000000000000000815260040161062f90610d41565b60405180910390fd5b60008060008573ffffffffffffffffffffffffffffffffffffffff1673ffffffffffffffffffffffffffffffffffffffff168152602001908152602001600020549050818110156106be576040517f08c379a00000000000000000000000000000000000000000000000000000000081526004016106b590610dd3565b60405180910390fd5b8181036000808673ffffffffffffffffffffffffffffffffffffffff1673ffffffffffffffffffffffffffffffffffffffff16815260200190815260200160002081905550816000808573ffffffffffffffffffffffffffffffffffffffff1673ffffffffffffffffffffffffffffffffffffffff16815260200190815260200160002060008282546107519190610c09565b925050819055508273ffffffffffffffffffffffffffffffffffffffff168473ffffffffffffffffffffffffffffffffffffffff167fddf252ad1be2c89b69c2b068fc378daa952ba7f163c4a11628f55a4df523b3ef846040516107b5919061088e565b60405180910390a350505050565b600081519050919050565b600082825260208201905092915050565b60005b838110156107fd5780820151818401526020810190506107e2565b60008484015250505050565b6000601f19601f8301169050919050565b6000610825826107c3565b61082f81856107ce565b935061083f8185602086016107df565b61084881610809565b840191505092915050565b6000602082019050818103600083015261086d818461081a565b905092915050565b6000819050919050565b61088881610875565b82525050565b60006020820190506108a3600083018461087f565b92915050565b600060ff82169050919050565b6108bf816108a9565b82525050565b60006020820190506108da60008301846108b6565b92915050565b600080fd5b600073ffffffffffffffffffffffffffffffffffffffff82169050919050565b6000610910826108e5565b9050919050565b61092081610905565b811461092b57600080fd5b50565b60008135905061093d81610917565b92915050565b600060208284031215610959576109586108e0565b5b60006109678482850161092e565b91505092915050565b61097981610905565b82525050565b60006020820190506109946000830184610970565b92915050565b6109a381610875565b81146109ae57600080fd5b50565b6000813590506109c08161099a565b92915050565b6000602082840312156109dc576109db6108e0565b5b60006109ea848285016109b1565b91505092915050565b60008115159050919050565b610a08816109f3565b82525050565b6000602082019050610a2360008301846109ff565b92915050565b600080600060608486031215610a4257610a416108e0565b5b6000610a508682870161092e565b9350506020610a618682870161092e565b9250506040610a72868287016109b1565b9150509250925092565b7f4e487b7100000000000000000000000000000000000000000000000000000000600052602260045260246000fd5b60006002820490506001821680610ac357607f821691505b602082108103610ad657610ad5610a7c565b5b50919050565b7f4e6f207469656e6573207065726d69736f73207061726120656a65637574617260008201527f20657374612066756e63696f6e2e000000000000000000000000000000000000602082015250565b6000610b38602e836107ce565b9150610b4382610adc565b604082019050919050565b60006020820190508181036000830152610b6781610b2b565b9050919050565b7f45524332303a206d696e7420746f20746865207a65726f206164647265737300600082015250565b6000610ba4601f836107ce565b9150610baf82610b6e565b602082019050919050565b60006020820190508181036000830152610bd381610b97565b9050919050565b7f4e487b7100000000000000000000000000000000000000000000000000000000600052601160045260246000fd5b6000610c1482610875565b9150610c1f83610875565b9250828201905080821115610c3757610c36610bda565b5b92915050565b7f45524332303a207472616e736665722066726f6d20746865207a65726f20616460008201527f6472657373000000000000000000000000000000000000000000000000000000602082015250565b6000610c996025836107ce565b9150610ca482610c3d565b604082019050919050565b60006020820190508181036000830152610cc881610c8c565b9050919050565b7f45524332303a207472616e7366657220746f20746865207a65726f206164647260008201527f6573730000000000000000000000000000000000000000000000000000000000602082015250565b6000610d2b6023836107ce565b9150610d3682610ccf565b604082019050919050565b60006020820190508181036000830152610d5a81610d1e565b9050919050565b7f45524332303a207472616e7366657220616d6f756e742065786365656473206260008201527f616c616e63650000000000000000000000000000000000000000000000000000602082015250565b6000610dbd6026836107ce565b9150610dc882610d61565b604082019050919050565b60006020820190508181036000830152610dec81610db0565b905091905056fea2646970667358221220003ccfe4ab51536fdfa49941953076c3ea99a8a1d351a5c904452dcdf3880e1264736f6c63430008120033",
  "linkReferences": {},
  "deployedLinkReferences": {}
}