{
  "_format": "hh-sol-artifact-1",
  "contractName": "Casino",
  "sourceName": "src/backend/contracts/Casino.sol",
  "abi": [
    {
      "inputs": [
        {
          "internalType": "address",
          "name": "_dusdAddress",
          "type": "address"
        },
        {
          "internalType": "address",
          "name": "_rouletteAddress",
          "type": "address"
        }
      ],
      "stateMutability": "nonpayable",
      "type": "constructor"
    },
    {
      "anonymous": false,
      "inputs": [
        {
          "indexed": true,
          "internalType": "address",
          "name": "previousOwner",
          "type": "address"
        },
        {
          "indexed": true,
          "internalType": "address",
          "name": "newOwner",
          "type": "address"
        }
      ],
      "name": "OwnershipTransferred",
      "type": "event"
    },
    {
      "inputs": [
        {
          "internalType": "address",
          "name": "_address",
          "type": "address"
        }
      ],
      "name": "authorizeAddressForTokenTransfer",
      "outputs": [],
      "stateMutability": "nonpayable",
      "type": "function"
    },
    {
      "inputs": [],
      "name": "balanceEthersSC",
      "outputs": [
        {
          "internalType": "uint256",
          "name": "",
          "type": "uint256"
        }
      ],
      "stateMutability": "view",
      "type": "function"
    },
    {
      "inputs": [
        {
          "internalType": "uint256",
          "name": "dusdAmountInWei",
          "type": "uint256"
        }
      ],
      "name": "buyTokens",
      "outputs": [],
      "stateMutability": "nonpayable",
      "type": "function"
    },
    {
      "inputs": [],
      "name": "casToken",
      "outputs": [
        {
          "internalType": "contract MintableToken",
          "name": "",
          "type": "address"
        }
      ],
      "stateMutability": "view",
      "type": "function"
    },
    {
      "inputs": [],
      "name": "dusdToken",
      "outputs": [
        {
          "internalType": "contract IDUSD",
          "name": "",
          "type": "address"
        }
      ],
      "stateMutability": "view",
      "type": "function"
    },
    {
      "inputs": [],
      "name": "getAdress",
      "outputs": [
        {
          "internalType": "address",
          "name": "",
          "type": "address"
        }
      ],
      "stateMutability": "view",
      "type": "function"
    },
    {
      "inputs": [],
      "name": "owner",
      "outputs": [
        {
          "internalType": "address",
          "name": "",
          "type": "address"
        }
      ],
      "stateMutability": "view",
      "type": "function"
    },
    {
      "inputs": [],
      "name": "rate",
      "outputs": [
        {
          "internalType": "uint256",
          "name": "",
          "type": "uint256"
        }
      ],
      "stateMutability": "view",
      "type": "function"
    },
    {
      "inputs": [],
      "name": "renounceOwnership",
      "outputs": [],
      "stateMutability": "nonpayable",
      "type": "function"
    },
    {
      "inputs": [
        {
          "internalType": "uint256",
          "name": "casAmount",
          "type": "uint256"
        }
      ],
      "name": "returnCasTokens",
      "outputs": [],
      "stateMutability": "nonpayable",
      "type": "function"
    },
    {
      "inputs": [],
      "name": "rouletteGame",
      "outputs": [
        {
          "internalType": "contract Roulette",
          "name": "",
          "type": "address"
        }
      ],
      "stateMutability": "view",
      "type": "function"
    },
    {
      "inputs": [
        {
          "internalType": "address",
          "name": "_rouletteAddress",
          "type": "address"
        }
      ],
      "name": "setRouletteAddress",
      "outputs": [],
      "stateMutability": "nonpayable",
      "type": "function"
    },
    {
      "inputs": [
        {
          "internalType": "address",
          "name": "_of",
          "type": "address"
        }
      ],
      "name": "tokenBalance",
      "outputs": [
        {
          "internalType": "uint256",
          "name": "",
          "type": "uint256"
        }
      ],
      "stateMutability": "view",
      "type": "function"
    },
    {
      "inputs": [
        {
          "internalType": "uint256",
          "name": "_numTokens",
          "type": "uint256"
        }
      ],
      "name": "tokenPrice",
      "outputs": [
        {
          "internalType": "uint256",
          "name": "",
          "type": "uint256"
        }
      ],
      "stateMutability": "pure",
      "type": "function"
    },
    {
      "inputs": [
        {
          "internalType": "address",
          "name": "newOwner",
          "type": "address"
        }
      ],
      "name": "transferOwnership",
      "outputs": [],
      "stateMutability": "nonpayable",
      "type": "function"
    },
    {
      "inputs": [
        {
          "internalType": "uint256",
          "name": "_numEther",
          "type": "uint256"
        }
      ],
      "name": "withdrawEth",
      "outputs": [],
      "stateMutability": "payable",
      "type": "function"
    }
  ],
  "bytecode": "0x608060405260646005553480156200001657600080fd5b50604051620043fb380380620043fb83398181016040528101906200003c9190620003ec565b6200005c62000050620002a860201b60201c565b620002b060201b60201c565b60018081905550604051620000719062000374565b6200007c90620004e4565b604051809103906000f08015801562000099573d6000803e3d6000fd5b50600260006101000a81548173ffffffffffffffffffffffffffffffffffffffff021916908373ffffffffffffffffffffffffffffffffffffffff16021790555081600360006101000a81548173ffffffffffffffffffffffffffffffffffffffff021916908373ffffffffffffffffffffffffffffffffffffffff16021790555080600460006101000a81548173ffffffffffffffffffffffffffffffffffffffff021916908373ffffffffffffffffffffffffffffffffffffffff160217905550600260009054906101000a900473ffffffffffffffffffffffffffffffffffffffff1673ffffffffffffffffffffffffffffffffffffffff166340c10f1930600260009054906101000a900473ffffffffffffffffffffffffffffffffffffffff1673ffffffffffffffffffffffffffffffffffffffff1663313ce5676040518163ffffffff1660e01b8152600401602060405180830381865afa15801562000209573d6000803e3d6000fd5b505050506040513d601f19601f820116820180604052508101906200022f919062000559565b600a6200023d919062000718565b620f42406200024d919062000769565b6040518363ffffffff1660e01b81526004016200026c929190620007d6565b600060405180830381600087803b1580156200028757600080fd5b505af11580156200029c573d6000803e3d6000fd5b50505050505062000803565b600033905090565b60008060009054906101000a900473ffffffffffffffffffffffffffffffffffffffff169050816000806101000a81548173ffffffffffffffffffffffffffffffffffffffff021916908373ffffffffffffffffffffffffffffffffffffffff1602179055508173ffffffffffffffffffffffffffffffffffffffff168173ffffffffffffffffffffffffffffffffffffffff167f8be0079c531659141344cd1fd0a4f28419497f9722a3daafe3b4186f6b6457e060405160405180910390a35050565b61225e806200219d83390190565b600080fd5b600073ffffffffffffffffffffffffffffffffffffffff82169050919050565b6000620003b48262000387565b9050919050565b620003c681620003a7565b8114620003d257600080fd5b50565b600081519050620003e681620003bb565b92915050565b6000806040838503121562000406576200040562000382565b5b60006200041685828601620003d5565b92505060206200042985828601620003d5565b9150509250929050565b600082825260208201905092915050565b7f436173696e6f0000000000000000000000000000000000000000000000000000600082015250565b60006200047c60068362000433565b9150620004898262000444565b602082019050919050565b7f4341530000000000000000000000000000000000000000000000000000000000600082015250565b6000620004cc60038362000433565b9150620004d98262000494565b602082019050919050565b60006040820190508181036000830152620004ff816200046d565b905081810360208301526200051481620004bd565b9050919050565b600060ff82169050919050565b62000533816200051b565b81146200053f57600080fd5b50565b600081519050620005538162000528565b92915050565b60006020828403121562000572576200057162000382565b5b6000620005828482850162000542565b91505092915050565b7f4e487b7100000000000000000000000000000000000000000000000000000000600052601160045260246000fd5b60008160011c9050919050565b6000808291508390505b60018511156200061957808604811115620005f157620005f06200058b565b5b6001851615620006015780820291505b80810290506200061185620005ba565b9450620005d1565b94509492505050565b60008262000634576001905062000707565b8162000644576000905062000707565b81600181146200065d576002811462000668576200069e565b600191505062000707565b60ff8411156200067d576200067c6200058b565b5b8360020a9150848211156200069757620006966200058b565b5b5062000707565b5060208310610133831016604e8410600b8410161715620006d85782820a905083811115620006d257620006d16200058b565b5b62000707565b620006e78484846001620005c7565b925090508184048111156200070157620007006200058b565b5b81810290505b9392505050565b6000819050919050565b600062000725826200070e565b915062000732836200051b565b9250620007617fffffffffffffffffffffffffffffffffffffffffffffffffffffffffffffffff848462000622565b905092915050565b600062000776826200070e565b915062000783836200070e565b925082820262000793816200070e565b91508282048414831517620007ad57620007ac6200058b565b5b5092915050565b620007bf81620003a7565b82525050565b620007d0816200070e565b82525050565b6000604082019050620007ed6000830185620007b4565b620007fc6020830184620007c5565b9392505050565b61198a80620008136000396000f3fe6080604052600436106100f35760003560e01c806385491f141161008a578063d4ddce8a11610059578063d4ddce8a146102d3578063d879cf9514610310578063eedc966a14610339578063f2fde38b14610376576100f3565b806385491f14146102385780638da5cb5b14610261578063b934c3841461028c578063c311d049146102b7576100f3565b80636b37d362116100c65780636b37d362146101a25780636e409a7a146101cd5780636f081e16146101f8578063715018a614610221576100f3565b80630934b7ff146100f8578063270e10dc146101235780632c4e722e1461014e5780633610724e14610179575b600080fd5b34801561010457600080fd5b5061010d61039f565b60405161011a919061114d565b60405180910390f35b34801561012f57600080fd5b506101386103c5565b6040516101459190611189565b60405180910390f35b34801561015a57600080fd5b506101636103eb565b60405161017091906111bd565b60405180910390f35b34801561018557600080fd5b506101a0600480360381019061019b9190611209565b6103f1565b005b3480156101ae57600080fd5b506101b7610436565b6040516101c49190611257565b60405180910390f35b3480156101d957600080fd5b506101e2610460565b6040516101ef9190611293565b60405180910390f35b34801561020457600080fd5b5061021f600480360381019061021a91906112da565b610486565b005b34801561022d57600080fd5b506102366104d2565b005b34801561024457600080fd5b5061025f600480360381019061025a91906112da565b6104e6565b005b34801561026d57600080fd5b5061027661057e565b6040516102839190611257565b60405180910390f35b34801561029857600080fd5b506102a16105a7565b6040516102ae91906111bd565b60405180910390f35b6102d160048036038101906102cc9190611209565b6105c2565b005b3480156102df57600080fd5b506102fa60048036038101906102f59190611209565b6106a8565b60405161030791906111bd565b60405180910390f35b34801561031c57600080fd5b5061033760048036038101906103329190611209565b6106c4565b005b34801561034557600080fd5b50610360600480360381019061035b91906112da565b610709565b60405161036d91906111bd565b60405180910390f35b34801561038257600080fd5b5061039d600480360381019061039891906112da565b6107ae565b005b600460009054906101000a900473ffffffffffffffffffffffffffffffffffffffff1681565b600360009054906101000a900473ffffffffffffffffffffffffffffffffffffffff1681565b60055481565b6103f9610831565b600061040482610880565b905061040f826108aa565b6104188261098b565b61042181610a6f565b61042a81610bb3565b50610433610c57565b50565b6000600260009054906101000a900473ffffffffffffffffffffffffffffffffffffffff16905090565b600260009054906101000a900473ffffffffffffffffffffffffffffffffffffffff1681565b61048e610c60565b80600460006101000a81548173ffffffffffffffffffffffffffffffffffffffff021916908373ffffffffffffffffffffffffffffffffffffffff16021790555050565b6104da610c60565b6104e46000610cde565b565b6104ee610c60565b600260009054906101000a900473ffffffffffffffffffffffffffffffffffffffff1673ffffffffffffffffffffffffffffffffffffffff16634a5db3b5826040518263ffffffff1660e01b81526004016105499190611257565b600060405180830381600087803b15801561056357600080fd5b505af1158015610577573d6000803e3d6000fd5b5050505050565b60008060009054906101000a900473ffffffffffffffffffffffffffffffffffffffff16905090565b6000670de0b6b3a7640000476105bd9190611365565b905090565b6105ca610c60565b6000811161060d576040517f08c379a000000000000000000000000000000000000000000000000000000000815260040161060490611419565b60405180910390fd5b6106156105a7565b811115610657576040517f08c379a000000000000000000000000000000000000000000000000000000000815260040161064e906114ab565b60405180910390fd5b61065f61057e565b73ffffffffffffffffffffffffffffffffffffffff166108fc829081150290604051600060405180830381858888f193505050501580156106a4573d6000803e3d6000fd5b5050565b600066038d7ea4c68000826106bd91906114cb565b9050919050565b6106cc610831565b60006106d782610da2565b90506106e282610dcc565b6106eb82610ead565b6106f481610f41565b6106fd81611022565b50610706610c57565b50565b6000600260009054906101000a900473ffffffffffffffffffffffffffffffffffffffff1673ffffffffffffffffffffffffffffffffffffffff166370a08231836040518263ffffffff1660e01b81526004016107669190611257565b602060405180830381865afa158015610783573d6000803e3d6000fd5b505050506040513d601f19601f820116820180604052508101906107a79190611522565b9050919050565b6107b6610c60565b600073ffffffffffffffffffffffffffffffffffffffff168173ffffffffffffffffffffffffffffffffffffffff1603610825576040517f08c379a000000000000000000000000000000000000000000000000000000000815260040161081c906115c1565b60405180910390fd5b61082e81610cde565b50565b600260015403610876576040517f08c379a000000000000000000000000000000000000000000000000000000000815260040161086d9061162d565b60405180910390fd5b6002600181905550565b6000670de0b6b3a76400006005548361089991906114cb565b6108a39190611365565b9050919050565b80600360009054906101000a900473ffffffffffffffffffffffffffffffffffffffff1673ffffffffffffffffffffffffffffffffffffffff166370a08231336040518263ffffffff1660e01b81526004016109069190611257565b602060405180830381865afa158015610923573d6000803e3d6000fd5b505050506040513d601f19601f820116820180604052508101906109479190611522565b1015610988576040517f08c379a000000000000000000000000000000000000000000000000000000000815260040161097f90611699565b60405180910390fd5b50565b600360009054906101000a900473ffffffffffffffffffffffffffffffffffffffff1673ffffffffffffffffffffffffffffffffffffffff166323b872dd3330846040518463ffffffff1660e01b81526004016109ea939291906116b9565b6020604051808303816000875af1158015610a09573d6000803e3d6000fd5b505050506040513d601f19601f82011682018060405250810190610a2d9190611728565b610a6c576040517f08c379a0000000000000000000000000000000000000000000000000000000008152600401610a63906117a1565b60405180910390fd5b50565b80600260009054906101000a900473ffffffffffffffffffffffffffffffffffffffff1673ffffffffffffffffffffffffffffffffffffffff166370a08231306040518263ffffffff1660e01b8152600401610acb9190611257565b602060405180830381865afa158015610ae8573d6000803e3d6000fd5b505050506040513d601f19601f82011682018060405250810190610b0c9190611522565b1015610bb057600260009054906101000a900473ffffffffffffffffffffffffffffffffffffffff1673ffffffffffffffffffffffffffffffffffffffff166340c10f1930620186a084610b6091906114cb565b6040518363ffffffff1660e01b8152600401610b7d9291906117c1565b600060405180830381600087803b158015610b9757600080fd5b505af1158015610bab573d6000803e3d6000fd5b505050505b50565b600260009054906101000a900473ffffffffffffffffffffffffffffffffffffffff1673ffffffffffffffffffffffffffffffffffffffff1663a9059cbb33836040518363ffffffff1660e01b8152600401610c109291906117c1565b6020604051808303816000875af1158015610c2f573d6000803e3d6000fd5b505050506040513d601f19601f82011682018060405250810190610c539190611728565b5050565b60018081905550565b610c686110c6565b73ffffffffffffffffffffffffffffffffffffffff16610c8661057e565b73ffffffffffffffffffffffffffffffffffffffff1614610cdc576040517f08c379a0000000000000000000000000000000000000000000000000000000008152600401610cd390611836565b60405180910390fd5b565b60008060009054906101000a900473ffffffffffffffffffffffffffffffffffffffff169050816000806101000a81548173ffffffffffffffffffffffffffffffffffffffff021916908373ffffffffffffffffffffffffffffffffffffffff1602179055508173ffffffffffffffffffffffffffffffffffffffff168173ffffffffffffffffffffffffffffffffffffffff167f8be0079c531659141344cd1fd0a4f28419497f9722a3daafe3b4186f6b6457e060405160405180910390a35050565b6000600554670de0b6b3a764000083610dbb91906114cb565b610dc59190611365565b9050919050565b80600260009054906101000a900473ffffffffffffffffffffffffffffffffffffffff1673ffffffffffffffffffffffffffffffffffffffff166370a08231336040518263ffffffff1660e01b8152600401610e289190611257565b602060405180830381865afa158015610e45573d6000803e3d6000fd5b505050506040513d601f19601f82011682018060405250810190610e699190611522565b1015610eaa576040517f08c379a0000000000000000000000000000000000000000000000000000000008152600401610ea1906118a2565b60405180910390fd5b50565b600260009054906101000a900473ffffffffffffffffffffffffffffffffffffffff1673ffffffffffffffffffffffffffffffffffffffff1663f83d17913330846040518463ffffffff1660e01b8152600401610f0c939291906116b9565b600060405180830381600087803b158015610f2657600080fd5b505af1158015610f3a573d6000803e3d6000fd5b5050505050565b80600360009054906101000a900473ffffffffffffffffffffffffffffffffffffffff1673ffffffffffffffffffffffffffffffffffffffff166370a08231306040518263ffffffff1660e01b8152600401610f9d9190611257565b602060405180830381865afa158015610fba573d6000803e3d6000fd5b505050506040513d601f19601f82011682018060405250810190610fde9190611522565b101561101f576040517f08c379a000000000000000000000000000000000000000000000000000000000815260040161101690611934565b60405180910390fd5b50565b600360009054906101000a900473ffffffffffffffffffffffffffffffffffffffff1673ffffffffffffffffffffffffffffffffffffffff1663a9059cbb33836040518363ffffffff1660e01b815260040161107f9291906117c1565b6020604051808303816000875af115801561109e573d6000803e3d6000fd5b505050506040513d601f19601f820116820180604052508101906110c29190611728565b5050565b600033905090565b600073ffffffffffffffffffffffffffffffffffffffff82169050919050565b6000819050919050565b600061111361110e611109846110ce565b6110ee565b6110ce565b9050919050565b6000611125826110f8565b9050919050565b60006111378261111a565b9050919050565b6111478161112c565b82525050565b6000602082019050611162600083018461113e565b92915050565b60006111738261111a565b9050919050565b61118381611168565b82525050565b600060208201905061119e600083018461117a565b92915050565b6000819050919050565b6111b7816111a4565b82525050565b60006020820190506111d260008301846111ae565b92915050565b600080fd5b6111e6816111a4565b81146111f157600080fd5b50565b600081359050611203816111dd565b92915050565b60006020828403121561121f5761121e6111d8565b5b600061122d848285016111f4565b91505092915050565b6000611241826110ce565b9050919050565b61125181611236565b82525050565b600060208201905061126c6000830184611248565b92915050565b600061127d8261111a565b9050919050565b61128d81611272565b82525050565b60006020820190506112a86000830184611284565b92915050565b6112b781611236565b81146112c257600080fd5b50565b6000813590506112d4816112ae565b92915050565b6000602082840312156112f0576112ef6111d8565b5b60006112fe848285016112c5565b91505092915050565b7f4e487b7100000000000000000000000000000000000000000000000000000000600052601260045260246000fd5b7f4e487b7100000000000000000000000000000000000000000000000000000000600052601160045260246000fd5b6000611370826111a4565b915061137b836111a4565b92508261138b5761138a611307565b5b828204905092915050565b600082825260208201905092915050565b7f5769746864726177616c20616d6f756e742073686f756c64206265206772656160008201527f746572207468616e20302e000000000000000000000000000000000000000000602082015250565b6000611403602b83611396565b915061140e826113a7565b604082019050919050565b60006020820190508181036000830152611432816113f6565b9050919050565b7f496e73756666696369656e742065746865727320696e2074686520636f6e747260008201527f6163742e00000000000000000000000000000000000000000000000000000000602082015250565b6000611495602483611396565b91506114a082611439565b604082019050919050565b600060208201905081810360008301526114c481611488565b9050919050565b60006114d6826111a4565b91506114e1836111a4565b92508282026114ef816111a4565b9150828204841483151761150657611505611336565b5b5092915050565b60008151905061151c816111dd565b92915050565b600060208284031215611538576115376111d8565b5b60006115468482850161150d565b91505092915050565b7f4f776e61626c653a206e6577206f776e657220697320746865207a65726f206160008201527f6464726573730000000000000000000000000000000000000000000000000000602082015250565b60006115ab602683611396565b91506115b68261154f565b604082019050919050565b600060208201905081810360008301526115da8161159e565b9050919050565b7f5265656e7472616e637947756172643a207265656e7472616e742063616c6c00600082015250565b6000611617601f83611396565b9150611622826115e1565b602082019050919050565b600060208201905081810360008301526116468161160a565b9050919050565b7f496e73756666696369656e7420445553442062616c616e636500000000000000600082015250565b6000611683601983611396565b915061168e8261164d565b602082019050919050565b600060208201905081810360008301526116b281611676565b9050919050565b60006060820190506116ce6000830186611248565b6116db6020830185611248565b6116e860408301846111ae565b949350505050565b60008115159050919050565b611705816116f0565b811461171057600080fd5b50565b600081519050611722816116fc565b92915050565b60006020828403121561173e5761173d6111d8565b5b600061174c84828501611713565b91505092915050565b7f44555344207472616e73666572206661696c6564000000000000000000000000600082015250565b600061178b601483611396565b915061179682611755565b602082019050919050565b600060208201905081810360008301526117ba8161177e565b9050919050565b60006040820190506117d66000830185611248565b6117e360208301846111ae565b9392505050565b7f4f776e61626c653a2063616c6c6572206973206e6f7420746865206f776e6572600082015250565b6000611820602083611396565b915061182b826117ea565b602082019050919050565b6000602082019050818103600083015261184f81611813565b9050919050565b7f496e73756666696369656e74204341532062616c616e63650000000000000000600082015250565b600061188c601883611396565b915061189782611856565b602082019050919050565b600060208201905081810360008301526118bb8161187f565b9050919050565b7f496e73756666696369656e7420445553442062616c616e636520696e2074686560008201527f20436173696e6f20636f6e747261637400000000000000000000000000000000602082015250565b600061191e603083611396565b9150611929826118c2565b604082019050919050565b6000602082019050818103600083015261194d81611911565b905091905056fea26469706673582212209cc717dfffd44d56cefc78860f36736d7a2005aaab0b6232cd9ab4201f762a9c64736f6c6343000813003360806040523480156200001157600080fd5b506040516200225e3803806200225e833981810160405281019062000037919062000340565b818181600390816200004a919062000610565b5080600490816200005c919062000610565b5050506200007f62000073620000df60201b60201c565b620000e760201b60201c565b6001600660003373ffffffffffffffffffffffffffffffffffffffff1673ffffffffffffffffffffffffffffffffffffffff16815260200190815260200160002060006101000a81548160ff0219169083151502179055505050620006f7565b600033905090565b6000600560009054906101000a900473ffffffffffffffffffffffffffffffffffffffff16905081600560006101000a81548173ffffffffffffffffffffffffffffffffffffffff021916908373ffffffffffffffffffffffffffffffffffffffff1602179055508173ffffffffffffffffffffffffffffffffffffffff168173ffffffffffffffffffffffffffffffffffffffff167f8be0079c531659141344cd1fd0a4f28419497f9722a3daafe3b4186f6b6457e060405160405180910390a35050565b6000604051905090565b600080fd5b600080fd5b600080fd5b600080fd5b6000601f19601f8301169050919050565b7f4e487b7100000000000000000000000000000000000000000000000000000000600052604160045260246000fd5b6200021682620001cb565b810181811067ffffffffffffffff82111715620002385762000237620001dc565b5b80604052505050565b60006200024d620001ad565b90506200025b82826200020b565b919050565b600067ffffffffffffffff8211156200027e576200027d620001dc565b5b6200028982620001cb565b9050602081019050919050565b60005b83811015620002b657808201518184015260208101905062000299565b60008484015250505050565b6000620002d9620002d38462000260565b62000241565b905082815260208101848484011115620002f857620002f7620001c6565b5b6200030584828562000296565b509392505050565b600082601f830112620003255762000324620001c1565b5b815162000337848260208601620002c2565b91505092915050565b600080604083850312156200035a5762000359620001b7565b5b600083015167ffffffffffffffff8111156200037b576200037a620001bc565b5b62000389858286016200030d565b925050602083015167ffffffffffffffff811115620003ad57620003ac620001bc565b5b620003bb858286016200030d565b9150509250929050565b600081519050919050565b7f4e487b7100000000000000000000000000000000000000000000000000000000600052602260045260246000fd5b600060028204905060018216806200041857607f821691505b6020821081036200042e576200042d620003d0565b5b50919050565b60008190508160005260206000209050919050565b60006020601f8301049050919050565b600082821b905092915050565b600060088302620004987fffffffffffffffffffffffffffffffffffffffffffffffffffffffffffffffff8262000459565b620004a4868362000459565b95508019841693508086168417925050509392505050565b6000819050919050565b6000819050919050565b6000620004f1620004eb620004e584620004bc565b620004c6565b620004bc565b9050919050565b6000819050919050565b6200050d83620004d0565b620005256200051c82620004f8565b84845462000466565b825550505050565b600090565b6200053c6200052d565b6200054981848462000502565b505050565b5b8181101562000571576200056560008262000532565b6001810190506200054f565b5050565b601f821115620005c0576200058a8162000434565b620005958462000449565b81016020851015620005a5578190505b620005bd620005b48562000449565b8301826200054e565b50505b505050565b600082821c905092915050565b6000620005e560001984600802620005c5565b1980831691505092915050565b6000620006008383620005d2565b9150826002028217905092915050565b6200061b82620003c5565b67ffffffffffffffff811115620006375762000636620001dc565b5b620006438254620003ff565b6200065082828562000575565b600060209050601f83116001811462000688576000841562000673578287015190505b6200067f8582620005f2565b865550620006ef565b601f198416620006988662000434565b60005b82811015620006c2578489015182556001820191506020850194506020810190506200069b565b86831015620006e25784890151620006de601f891682620005d2565b8355505b6001600288020188555050505b505050505050565b611b5780620007076000396000f3fe608060405234801561001057600080fd5b50600436106101215760003560e01c8063715018a6116100ad578063b48028e311610071578063b48028e31461031e578063dd62ed3e1461033a578063f19e207e1461036a578063f2fde38b1461039a578063f83d1791146103b657610121565b8063715018a6146102785780638da5cb5b1461028257806395d89b41146102a0578063a457c2d7146102be578063a9059cbb146102ee57610121565b8063313ce567116100f4578063313ce567146101c257806339509351146101e057806340c10f19146102105780634a5db3b51461022c57806370a082311461024857610121565b806306fdde0314610126578063095ea7b31461014457806318160ddd1461017457806323b872dd14610192575b600080fd5b61012e6103d2565b60405161013b91906111a2565b60405180910390f35b61015e6004803603810190610159919061125d565b610464565b60405161016b91906112b8565b60405180910390f35b61017c610487565b60405161018991906112e2565b60405180910390f35b6101ac60048036038101906101a791906112fd565b610491565b6040516101b991906112b8565b60405180910390f35b6101ca6104c0565b6040516101d7919061136c565b60405180910390f35b6101fa60048036038101906101f5919061125d565b6104c5565b60405161020791906112b8565b60405180910390f35b61022a6004803603810190610225919061125d565b6104fc565b005b61024660048036038101906102419190611387565b610512565b005b610262600480360381019061025d9190611387565b610575565b60405161026f91906112e2565b60405180910390f35b6102806105bd565b005b61028a6105d1565b60405161029791906113c3565b60405180910390f35b6102a86105fb565b6040516102b591906111a2565b60405180910390f35b6102d860048036038101906102d3919061125d565b61068d565b6040516102e591906112b8565b60405180910390f35b6103086004803603810190610303919061125d565b610704565b60405161031591906112b8565b60405180910390f35b61033860048036038101906103339190611387565b610727565b005b610354600480360381019061034f91906113de565b61078a565b60405161036191906112e2565b60405180910390f35b610384600480360381019061037f9190611387565b610811565b60405161039191906112b8565b60405180910390f35b6103b460048036038101906103af9190611387565b610831565b005b6103d060048036038101906103cb91906112fd565b6108b4565b005b6060600380546103e19061144d565b80601f016020809104026020016040519081016040528092919081815260200182805461040d9061144d565b801561045a5780601f1061042f5761010080835404028352916020019161045a565b820191906000526020600020905b81548152906001019060200180831161043d57829003601f168201915b5050505050905090565b60008061046f61099b565b905061047c8185856109a3565b600191505092915050565b6000600254905090565b60008061049c61099b565b90506104a9858285610b6c565b6104b4858585610bf8565b60019150509392505050565b600090565b6000806104d061099b565b90506104f18185856104e2858961078a565b6104ec91906114ad565b6109a3565b600191505092915050565b610504610e6e565b61050e8282610eec565b5050565b61051a610e6e565b6001600660008373ffffffffffffffffffffffffffffffffffffffff1673ffffffffffffffffffffffffffffffffffffffff16815260200190815260200160002060006101000a81548160ff02191690831515021790555050565b60008060008373ffffffffffffffffffffffffffffffffffffffff1673ffffffffffffffffffffffffffffffffffffffff168152602001908152602001600020549050919050565b6105c5610e6e565b6105cf6000611042565b565b6000600560009054906101000a900473ffffffffffffffffffffffffffffffffffffffff16905090565b60606004805461060a9061144d565b80601f01602080910402602001604051908101604052809291908181526020018280546106369061144d565b80156106835780601f1061065857610100808354040283529160200191610683565b820191906000526020600020905b81548152906001019060200180831161066657829003601f168201915b5050505050905090565b60008061069861099b565b905060006106a6828661078a565b9050838110156106eb576040517f08c379a00000000000000000000000000000000000000000000000000000000081526004016106e290611553565b60405180910390fd5b6106f882868684036109a3565b60019250505092915050565b60008061070f61099b565b905061071c818585610bf8565b600191505092915050565b61072f610e6e565b6000600660008373ffffffffffffffffffffffffffffffffffffffff1673ffffffffffffffffffffffffffffffffffffffff16815260200190815260200160002060006101000a81548160ff02191690831515021790555050565b6000600160008473ffffffffffffffffffffffffffffffffffffffff1673ffffffffffffffffffffffffffffffffffffffff16815260200190815260200160002060008373ffffffffffffffffffffffffffffffffffffffff1673ffffffffffffffffffffffffffffffffffffffff16815260200190815260200160002054905092915050565b60066020528060005260406000206000915054906101000a900460ff1681565b610839610e6e565b600073ffffffffffffffffffffffffffffffffffffffff168173ffffffffffffffffffffffffffffffffffffffff16036108a8576040517f08c379a000000000000000000000000000000000000000000000000000000000815260040161089f906115e5565b60405180910390fd5b6108b181611042565b50565b600660003373ffffffffffffffffffffffffffffffffffffffff1673ffffffffffffffffffffffffffffffffffffffff16815260200190815260200160002060009054906101000a900460ff16610940576040517f08c379a000000000000000000000000000000000000000000000000000000000815260040161093790611651565b60405180910390fd5b8061094a84610575565b101561098b576040517f08c379a0000000000000000000000000000000000000000000000000000000008152600401610982906116e3565b60405180910390fd5b610996838383610bf8565b505050565b600033905090565b600073ffffffffffffffffffffffffffffffffffffffff168373ffffffffffffffffffffffffffffffffffffffff1603610a12576040517f08c379a0000000000000000000000000000000000000000000000000000000008152600401610a0990611775565b60405180910390fd5b600073ffffffffffffffffffffffffffffffffffffffff168273ffffffffffffffffffffffffffffffffffffffff1603610a81576040517f08c379a0000000000000000000000000000000000000000000000000000000008152600401610a7890611807565b60405180910390fd5b80600160008573ffffffffffffffffffffffffffffffffffffffff1673ffffffffffffffffffffffffffffffffffffffff16815260200190815260200160002060008473ffffffffffffffffffffffffffffffffffffffff1673ffffffffffffffffffffffffffffffffffffffff168152602001908152602001600020819055508173ffffffffffffffffffffffffffffffffffffffff168373ffffffffffffffffffffffffffffffffffffffff167f8c5be1e5ebec7d5bd14f71427d1e84f3dd0314c0f7b2291e5b200ac8c7c3b92583604051610b5f91906112e2565b60405180910390a3505050565b6000610b78848461078a565b90507fffffffffffffffffffffffffffffffffffffffffffffffffffffffffffffffff8114610bf25781811015610be4576040517f08c379a0000000000000000000000000000000000000000000000000000000008152600401610bdb90611873565b60405180910390fd5b610bf184848484036109a3565b5b50505050565b600073ffffffffffffffffffffffffffffffffffffffff168373ffffffffffffffffffffffffffffffffffffffff1603610c67576040517f08c379a0000000000000000000000000000000000000000000000000000000008152600401610c5e90611905565b60405180910390fd5b600073ffffffffffffffffffffffffffffffffffffffff168273ffffffffffffffffffffffffffffffffffffffff1603610cd6576040517f08c379a0000000000000000000000000000000000000000000000000000000008152600401610ccd90611997565b60405180910390fd5b610ce1838383611108565b60008060008573ffffffffffffffffffffffffffffffffffffffff1673ffffffffffffffffffffffffffffffffffffffff16815260200190815260200160002054905081811015610d67576040517f08c379a0000000000000000000000000000000000000000000000000000000008152600401610d5e90611a29565b60405180910390fd5b8181036000808673ffffffffffffffffffffffffffffffffffffffff1673ffffffffffffffffffffffffffffffffffffffff16815260200190815260200160002081905550816000808573ffffffffffffffffffffffffffffffffffffffff1673ffffffffffffffffffffffffffffffffffffffff168152602001908152602001600020600082825401925050819055508273ffffffffffffffffffffffffffffffffffffffff168473ffffffffffffffffffffffffffffffffffffffff167fddf252ad1be2c89b69c2b068fc378daa952ba7f163c4a11628f55a4df523b3ef84604051610e5591906112e2565b60405180910390a3610e6884848461110d565b50505050565b610e7661099b565b73ffffffffffffffffffffffffffffffffffffffff16610e946105d1565b73ffffffffffffffffffffffffffffffffffffffff1614610eea576040517f08c379a0000000000000000000000000000000000000000000000000000000008152600401610ee190611a95565b60405180910390fd5b565b600073ffffffffffffffffffffffffffffffffffffffff168273ffffffffffffffffffffffffffffffffffffffff1603610f5b576040517f08c379a0000000000000000000000000000000000000000000000000000000008152600401610f5290611b01565b60405180910390fd5b610f6760008383611108565b8060026000828254610f7991906114ad565b92505081905550806000808473ffffffffffffffffffffffffffffffffffffffff1673ffffffffffffffffffffffffffffffffffffffff168152602001908152602001600020600082825401925050819055508173ffffffffffffffffffffffffffffffffffffffff16600073ffffffffffffffffffffffffffffffffffffffff167fddf252ad1be2c89b69c2b068fc378daa952ba7f163c4a11628f55a4df523b3ef8360405161102a91906112e2565b60405180910390a361103e6000838361110d565b5050565b6000600560009054906101000a900473ffffffffffffffffffffffffffffffffffffffff16905081600560006101000a81548173ffffffffffffffffffffffffffffffffffffffff021916908373ffffffffffffffffffffffffffffffffffffffff1602179055508173ffffffffffffffffffffffffffffffffffffffff168173ffffffffffffffffffffffffffffffffffffffff167f8be0079c531659141344cd1fd0a4f28419497f9722a3daafe3b4186f6b6457e060405160405180910390a35050565b505050565b505050565b600081519050919050565b600082825260208201905092915050565b60005b8381101561114c578082015181840152602081019050611131565b60008484015250505050565b6000601f19601f8301169050919050565b600061117482611112565b61117e818561111d565b935061118e81856020860161112e565b61119781611158565b840191505092915050565b600060208201905081810360008301526111bc8184611169565b905092915050565b600080fd5b600073ffffffffffffffffffffffffffffffffffffffff82169050919050565b60006111f4826111c9565b9050919050565b611204816111e9565b811461120f57600080fd5b50565b600081359050611221816111fb565b92915050565b6000819050919050565b61123a81611227565b811461124557600080fd5b50565b60008135905061125781611231565b92915050565b60008060408385031215611274576112736111c4565b5b600061128285828601611212565b925050602061129385828601611248565b9150509250929050565b60008115159050919050565b6112b28161129d565b82525050565b60006020820190506112cd60008301846112a9565b92915050565b6112dc81611227565b82525050565b60006020820190506112f760008301846112d3565b92915050565b600080600060608486031215611316576113156111c4565b5b600061132486828701611212565b935050602061133586828701611212565b925050604061134686828701611248565b9150509250925092565b600060ff82169050919050565b61136681611350565b82525050565b6000602082019050611381600083018461135d565b92915050565b60006020828403121561139d5761139c6111c4565b5b60006113ab84828501611212565b91505092915050565b6113bd816111e9565b82525050565b60006020820190506113d860008301846113b4565b92915050565b600080604083850312156113f5576113f46111c4565b5b600061140385828601611212565b925050602061141485828601611212565b9150509250929050565b7f4e487b7100000000000000000000000000000000000000000000000000000000600052602260045260246000fd5b6000600282049050600182168061146557607f821691505b6020821081036114785761147761141e565b5b50919050565b7f4e487b7100000000000000000000000000000000000000000000000000000000600052601160045260246000fd5b60006114b882611227565b91506114c383611227565b92508282019050808211156114db576114da61147e565b5b92915050565b7f45524332303a2064656372656173656420616c6c6f77616e63652062656c6f7760008201527f207a65726f000000000000000000000000000000000000000000000000000000602082015250565b600061153d60258361111d565b9150611548826114e1565b604082019050919050565b6000602082019050818103600083015261156c81611530565b9050919050565b7f4f776e61626c653a206e6577206f776e657220697320746865207a65726f206160008201527f6464726573730000000000000000000000000000000000000000000000000000602082015250565b60006115cf60268361111d565b91506115da82611573565b604082019050919050565b600060208201905081810360008301526115fe816115c2565b9050919050565b7f4e6f7420617574686f72697a6564000000000000000000000000000000000000600082015250565b600061163b600e8361111d565b915061164682611605565b602082019050919050565b6000602082019050818103600083015261166a8161162e565b9050919050565b7f496e73756666696369656e742062616c616e636520696e2074686520736f757260008201527f6365206164647265737300000000000000000000000000000000000000000000602082015250565b60006116cd602a8361111d565b91506116d882611671565b604082019050919050565b600060208201905081810360008301526116fc816116c0565b9050919050565b7f45524332303a20617070726f76652066726f6d20746865207a65726f2061646460008201527f7265737300000000000000000000000000000000000000000000000000000000602082015250565b600061175f60248361111d565b915061176a82611703565b604082019050919050565b6000602082019050818103600083015261178e81611752565b9050919050565b7f45524332303a20617070726f766520746f20746865207a65726f20616464726560008201527f7373000000000000000000000000000000000000000000000000000000000000602082015250565b60006117f160228361111d565b91506117fc82611795565b604082019050919050565b60006020820190508181036000830152611820816117e4565b9050919050565b7f45524332303a20696e73756666696369656e7420616c6c6f77616e6365000000600082015250565b600061185d601d8361111d565b915061186882611827565b602082019050919050565b6000602082019050818103600083015261188c81611850565b9050919050565b7f45524332303a207472616e736665722066726f6d20746865207a65726f20616460008201527f6472657373000000000000000000000000000000000000000000000000000000602082015250565b60006118ef60258361111d565b91506118fa82611893565b604082019050919050565b6000602082019050818103600083015261191e816118e2565b9050919050565b7f45524332303a207472616e7366657220746f20746865207a65726f206164647260008201527f6573730000000000000000000000000000000000000000000000000000000000602082015250565b600061198160238361111d565b915061198c82611925565b604082019050919050565b600060208201905081810360008301526119b081611974565b9050919050565b7f45524332303a207472616e7366657220616d6f756e742065786365656473206260008201527f616c616e63650000000000000000000000000000000000000000000000000000602082015250565b6000611a1360268361111d565b9150611a1e826119b7565b604082019050919050565b60006020820190508181036000830152611a4281611a06565b9050919050565b7f4f776e61626c653a2063616c6c6572206973206e6f7420746865206f776e6572600082015250565b6000611a7f60208361111d565b9150611a8a82611a49565b602082019050919050565b60006020820190508181036000830152611aae81611a72565b9050919050565b7f45524332303a206d696e7420746f20746865207a65726f206164647265737300600082015250565b6000611aeb601f8361111d565b9150611af682611ab5565b602082019050919050565b60006020820190508181036000830152611b1a81611ade565b905091905056fea26469706673582212206d9914dc361132bce86e94be84c809833ad04dec8416706d2a6a64306e80de0764736f6c63430008130033",
  "linkReferences": {},
  "deployedLinkReferences": {}
}