{
  "_format": "hh-sol-artifact-1",
  "contractName": "Roulette",
  "sourceName": "src/backend/contracts/Roulette.sol",
  "abi": [
    {
      "inputs": [],
      "stateMutability": "nonpayable",
      "type": "constructor"
    },
    {
      "anonymous": false,
      "inputs": [
        {
          "indexed": false,
          "internalType": "uint256",
          "name": "NumberWin",
          "type": "uint256"
        },
        {
          "indexed": false,
          "internalType": "bool",
          "name": "result",
          "type": "bool"
        },
        {
          "indexed": false,
          "internalType": "uint256",
          "name": "tokensEarned",
          "type": "uint256"
        }
      ],
      "name": "RouletteGame",
      "type": "event"
    },
    {
      "inputs": [],
      "name": "casToken",
      "outputs": [
        {
          "internalType": "contract MintableToken",
          "name": "",
          "type": "address"
        }
      ],
      "stateMutability": "view",
      "type": "function"
    },
    {
      "inputs": [],
      "name": "owner",
      "outputs": [
        {
          "internalType": "address",
          "name": "",
          "type": "address"
        }
      ],
      "stateMutability": "view",
      "type": "function"
    },
    {
      "inputs": [
        {
          "internalType": "uint256",
          "name": "_start",
          "type": "uint256"
        },
        {
          "internalType": "uint256",
          "name": "_end",
          "type": "uint256"
        },
        {
          "internalType": "uint256",
          "name": "_tokensBet",
          "type": "uint256"
        }
      ],
      "name": "playRoulette",
      "outputs": [],
      "stateMutability": "nonpayable",
      "type": "function"
    },
    {
      "inputs": [
        {
          "internalType": "address",
          "name": "_casTokenAddress",
          "type": "address"
        }
      ],
      "name": "setCasTokenAddress",
      "outputs": [],
      "stateMutability": "nonpayable",
      "type": "function"
    },
    {
      "inputs": [
        {
          "internalType": "address",
          "name": "_owner",
          "type": "address"
        }
      ],
      "name": "yourHistory",
      "outputs": [
        {
          "components": [
            {
              "internalType": "uint256",
              "name": "tokensBet",
              "type": "uint256"
            },
            {
              "internalType": "uint256",
              "name": "tokensEarned",
              "type": "uint256"
            },
            {
              "internalType": "string",
              "name": "game",
              "type": "string"
            }
          ],
          "internalType": "struct Roulette.Bet[]",
          "name": "",
          "type": "tuple[]"
        }
      ],
      "stateMutability": "view",
      "type": "function"
    }
  ],
  "bytecode": "0x608060405234801561001057600080fd5b5033600160006101000a81548173ffffffffffffffffffffffffffffffffffffffff021916908373ffffffffffffffffffffffffffffffffffffffff160217905550611457806100616000396000f3fe608060405234801561001057600080fd5b50600436106100575760003560e01c80636e409a7a1461005c578063886aacf11461007a5780638da5cb5b146100aa578063a5bff9c6146100c8578063c75bc771146100e4575b600080fd5b610064610100565b6040516100719190610940565b60405180910390f35b610094600480360381019061008f919061099e565b610124565b6040516100a19190610b86565b60405180910390f35b6100b2610268565b6040516100bf9190610bb7565b60405180910390f35b6100e260048036038101906100dd919061099e565b61028e565b005b6100fe60048036038101906100f99190610bfe565b6103f0565b005b60008054906101000a900473ffffffffffffffffffffffffffffffffffffffff1681565b6060600260008373ffffffffffffffffffffffffffffffffffffffff1673ffffffffffffffffffffffffffffffffffffffff168152602001908152602001600020805480602002602001604051908101604052809291908181526020016000905b8282101561025d578382906000526020600020906003020160405180606001604052908160008201548152602001600182015481526020016002820180546101cc90610c80565b80601f01602080910402602001604051908101604052809291908181526020018280546101f890610c80565b80156102455780601f1061021a57610100808354040283529160200191610245565b820191906000526020600020905b81548152906001019060200180831161022857829003601f168201915b50505050508152505081526020019060010190610185565b505050509050919050565b600160009054906101000a900473ffffffffffffffffffffffffffffffffffffffff1681565b600160009054906101000a900473ffffffffffffffffffffffffffffffffffffffff1673ffffffffffffffffffffffffffffffffffffffff163373ffffffffffffffffffffffffffffffffffffffff161461031e576040517f08c379a000000000000000000000000000000000000000000000000000000000815260040161031590610d0e565b60405180910390fd5b600073ffffffffffffffffffffffffffffffffffffffff1660008054906101000a900473ffffffffffffffffffffffffffffffffffffffff1673ffffffffffffffffffffffffffffffffffffffff16146103ad576040517f08c379a00000000000000000000000000000000000000000000000000000000081526004016103a490610d7a565b60405180910390fd5b806000806101000a81548173ffffffffffffffffffffffffffffffffffffffff021916908373ffffffffffffffffffffffffffffffffffffffff16021790555050565b6103fb838383610450565b60006104088484846105d1565b905061044a6040518060400160405280600781526020017f526f756c657465000000000000000000000000000000000000000000000000008152508383610774565b50505050565b600083101580156104615750818311155b801561046e5750600e8211155b6104ad576040517f08c379a00000000000000000000000000000000000000000000000000000000081526004016104a490610de6565b60405180910390fd5b600081116104f0576040517f08c379a00000000000000000000000000000000000000000000000000000000081526004016104e790610e78565b60405180910390fd5b60008054906101000a900473ffffffffffffffffffffffffffffffffffffffff1673ffffffffffffffffffffffffffffffffffffffff166370a08231336040518263ffffffff1660e01b81526004016105499190610bb7565b602060405180830381865afa158015610566573d6000803e3d6000fd5b505050506040513d601f19601f8201168201806040525081019061058a9190610ead565b8111156105cc576040517f08c379a00000000000000000000000000000000000000000000000000000000081526004016105c390610f26565b60405180910390fd5b505050565b60008060009054906101000a900473ffffffffffffffffffffffffffffffffffffffff1673ffffffffffffffffffffffffffffffffffffffff1663f83d17913330856040518463ffffffff1660e01b815260040161063193929190610f55565b600060405180830381600087803b15801561064b57600080fd5b505af115801561065f573d6000803e3d6000fd5b50505050600061066d61082e565b9050600061067d8287878761086d565b905060008082119050801561072c5760008054906101000a900473ffffffffffffffffffffffffffffffffffffffff1673ffffffffffffffffffffffffffffffffffffffff1663a9059cbb33846040518363ffffffff1660e01b81526004016106e7929190610f8c565b6020604051808303816000875af1158015610706573d6000803e3d6000fd5b505050506040513d601f19601f8201168201806040525081019061072a9190610fed565b505b7fd25d6b7f2fbc40564b21f40e1d506ff3d5276071da39d3def6b88f6ee8a3965983828460405161075f93929190611029565b60405180910390a18193505050509392505050565b60006040518060600160405280848152602001838152602001858152509050600260003373ffffffffffffffffffffffffffffffffffffffff1673ffffffffffffffffffffffffffffffffffffffff168152602001908152602001600020819080600181540180825580915050600190039060005260206000209060030201600090919091909150600082015181600001556020820151816001015560408201518160020190816108259190611231565b50505050505050565b6000600f4244604051602001610845929190611324565b6040516020818303038152906040528051906020012060001c610868919061137f565b905090565b600083851015801561087f5750828511155b156108b457600085036108a057600e8261089991906113df565b90506108b9565b6002826108ad91906113df565b90506108b9565b600090505b949350505050565b600073ffffffffffffffffffffffffffffffffffffffff82169050919050565b6000819050919050565b60006109066109016108fc846108c1565b6108e1565b6108c1565b9050919050565b6000610918826108eb565b9050919050565b600061092a8261090d565b9050919050565b61093a8161091f565b82525050565b60006020820190506109556000830184610931565b92915050565b600080fd5b600061096b826108c1565b9050919050565b61097b81610960565b811461098657600080fd5b50565b60008135905061099881610972565b92915050565b6000602082840312156109b4576109b361095b565b5b60006109c284828501610989565b91505092915050565b600081519050919050565b600082825260208201905092915050565b6000819050602082019050919050565b6000819050919050565b610a0a816109f7565b82525050565b600081519050919050565b600082825260208201905092915050565b60005b83811015610a4a578082015181840152602081019050610a2f565b60008484015250505050565b6000601f19601f8301169050919050565b6000610a7282610a10565b610a7c8185610a1b565b9350610a8c818560208601610a2c565b610a9581610a56565b840191505092915050565b6000606083016000830151610ab86000860182610a01565b506020830151610acb6020860182610a01565b5060408301518482036040860152610ae38282610a67565b9150508091505092915050565b6000610afc8383610aa0565b905092915050565b6000602082019050919050565b6000610b1c826109cb565b610b2681856109d6565b935083602082028501610b38856109e7565b8060005b85811015610b745784840389528151610b558582610af0565b9450610b6083610b04565b925060208a01995050600181019050610b3c565b50829750879550505050505092915050565b60006020820190508181036000830152610ba08184610b11565b905092915050565b610bb181610960565b82525050565b6000602082019050610bcc6000830184610ba8565b92915050565b610bdb816109f7565b8114610be657600080fd5b50565b600081359050610bf881610bd2565b92915050565b600080600060608486031215610c1757610c1661095b565b5b6000610c2586828701610be9565b9350506020610c3686828701610be9565b9250506040610c4786828701610be9565b9150509250925092565b7f4e487b7100000000000000000000000000000000000000000000000000000000600052602260045260246000fd5b60006002820490506001821680610c9857607f821691505b602082108103610cab57610caa610c51565b5b50919050565b600082825260208201905092915050565b7f4e6f742074686520636f6e7472616374206f776e657200000000000000000000600082015250565b6000610cf8601683610cb1565b9150610d0382610cc2565b602082019050919050565b60006020820190508181036000830152610d2781610ceb565b9050919050565b7f43415320546f6b656e206164647265737320616c726561647920736574000000600082015250565b6000610d64601d83610cb1565b9150610d6f82610d2e565b602082019050919050565b60006020820190508181036000830152610d9381610d57565b9050919050565b7f496e76616c69642062657474696e672072616e67650000000000000000000000600082015250565b6000610dd0601583610cb1565b9150610ddb82610d9a565b602082019050919050565b60006020820190508181036000830152610dff81610dc3565b9050919050565b7f42657420616d6f756e74206d7573742062652067726561746572207468616e2060008201527f3000000000000000000000000000000000000000000000000000000000000000602082015250565b6000610e62602183610cb1565b9150610e6d82610e06565b604082019050919050565b60006020820190508181036000830152610e9181610e55565b9050919050565b600081519050610ea781610bd2565b92915050565b600060208284031215610ec357610ec261095b565b5b6000610ed184828501610e98565b91505092915050565b7f496e73756666696369656e7420746f6b656e7320666f72206265740000000000600082015250565b6000610f10601b83610cb1565b9150610f1b82610eda565b602082019050919050565b60006020820190508181036000830152610f3f81610f03565b9050919050565b610f4f816109f7565b82525050565b6000606082019050610f6a6000830186610ba8565b610f776020830185610ba8565b610f846040830184610f46565b949350505050565b6000604082019050610fa16000830185610ba8565b610fae6020830184610f46565b9392505050565b60008115159050919050565b610fca81610fb5565b8114610fd557600080fd5b50565b600081519050610fe781610fc1565b92915050565b6000602082840312156110035761100261095b565b5b600061101184828501610fd8565b91505092915050565b61102381610fb5565b82525050565b600060608201905061103e6000830186610f46565b61104b602083018561101a565b6110586040830184610f46565b949350505050565b7f4e487b7100000000000000000000000000000000000000000000000000000000600052604160045260246000fd5b60008190508160005260206000209050919050565b60006020601f8301049050919050565b600082821b905092915050565b6000600883026110f17fffffffffffffffffffffffffffffffffffffffffffffffffffffffffffffffff826110b4565b6110fb86836110b4565b95508019841693508086168417925050509392505050565b600061112e611129611124846109f7565b6108e1565b6109f7565b9050919050565b6000819050919050565b61114883611113565b61115c61115482611135565b8484546110c1565b825550505050565b600090565b611171611164565b61117c81848461113f565b505050565b5b818110156111a057611195600082611169565b600181019050611182565b5050565b601f8211156111e5576111b68161108f565b6111bf846110a4565b810160208510156111ce578190505b6111e26111da856110a4565b830182611181565b50505b505050565b600082821c905092915050565b6000611208600019846008026111ea565b1980831691505092915050565b600061122183836111f7565b9150826002028217905092915050565b61123a82610a10565b67ffffffffffffffff81111561125357611252611060565b5b61125d8254610c80565b6112688282856111a4565b600060209050601f83116001811461129b5760008415611289578287015190505b6112938582611215565b8655506112fb565b601f1984166112a98661108f565b60005b828110156112d1578489015182556001820191506020850194506020810190506112ac565b868310156112ee57848901516112ea601f8916826111f7565b8355505b6001600288020188555050505b505050505050565b6000819050919050565b61131e611319826109f7565b611303565b82525050565b6000611330828561130d565b602082019150611340828461130d565b6020820191508190509392505050565b7f4e487b7100000000000000000000000000000000000000000000000000000000600052601260045260246000fd5b600061138a826109f7565b9150611395836109f7565b9250826113a5576113a4611350565b5b828206905092915050565b7f4e487b7100000000000000000000000000000000000000000000000000000000600052601160045260246000fd5b60006113ea826109f7565b91506113f5836109f7565b9250828202611403816109f7565b9150828204841483151761141a576114196113b0565b5b509291505056fea264697066735822122038f9a5b212c49528498d36031978be31f2c1a86606ec87c3b6b87bdd765fbe8d64736f6c63430008130033",
  "linkReferences": {},
  "deployedLinkReferences": {}
}