{
  "_format": "hh-sol-artifact-1",
  "contractName": "Roulette",
  "sourceName": "src/backend/contracts/Roulette.sol",
  "abi": [
    {
      "inputs": [],
      "stateMutability": "nonpayable",
      "type": "constructor"
    },
    {
      "anonymous": false,
      "inputs": [
        {
          "indexed": false,
          "internalType": "uint256",
          "name": "NumberWin",
          "type": "uint256"
        },
        {
          "indexed": false,
          "internalType": "bool",
          "name": "result",
          "type": "bool"
        },
        {
          "indexed": false,
          "internalType": "uint256",
          "name": "tokensEarned",
          "type": "uint256"
        }
      ],
      "name": "RouletteGame",
      "type": "event"
    },
    {
      "inputs": [],
      "name": "casToken",
      "outputs": [
        {
          "internalType": "contract MintableToken",
          "name": "",
          "type": "address"
        }
      ],
      "stateMutability": "view",
      "type": "function"
    },
    {
      "inputs": [],
      "name": "enabled",
      "outputs": [
        {
          "internalType": "bool",
          "name": "",
          "type": "bool"
        }
      ],
      "stateMutability": "view",
      "type": "function"
    },
    {
      "inputs": [],
      "name": "owner",
      "outputs": [
        {
          "internalType": "address",
          "name": "",
          "type": "address"
        }
      ],
      "stateMutability": "view",
      "type": "function"
    },
    {
      "inputs": [
        {
          "internalType": "uint256",
          "name": "_start",
          "type": "uint256"
        },
        {
          "internalType": "uint256",
          "name": "_end",
          "type": "uint256"
        },
        {
          "internalType": "uint256",
          "name": "_tokensBet",
          "type": "uint256"
        }
      ],
      "name": "playRoulette",
      "outputs": [],
      "stateMutability": "nonpayable",
      "type": "function"
    },
    {
      "inputs": [
        {
          "internalType": "address",
          "name": "_casTokenAddress",
          "type": "address"
        }
      ],
      "name": "setCasTokenAddress",
      "outputs": [],
      "stateMutability": "nonpayable",
      "type": "function"
    },
    {
      "inputs": [
        {
          "internalType": "bool",
          "name": "_enabled",
          "type": "bool"
        }
      ],
      "name": "setEnabled",
      "outputs": [],
      "stateMutability": "nonpayable",
      "type": "function"
    },
    {
      "inputs": [
        {
          "internalType": "address",
          "name": "_owner",
          "type": "address"
        }
      ],
      "name": "yourHistory",
      "outputs": [
        {
          "components": [
            {
              "internalType": "uint256",
              "name": "tokensBet",
              "type": "uint256"
            },
            {
              "internalType": "uint256",
              "name": "tokensEarned",
              "type": "uint256"
            },
            {
              "internalType": "string",
              "name": "game",
              "type": "string"
            }
          ],
          "internalType": "struct Roulette.Bet[]",
          "name": "",
          "type": "tuple[]"
        }
      ],
      "stateMutability": "view",
      "type": "function"
    }
  ],
  "bytecode": "0x6080604052600160035f6101000a81548160ff021916908315150217905550348015610029575f80fd5b503360015f6101000a81548173ffffffffffffffffffffffffffffffffffffffff021916908373ffffffffffffffffffffffffffffffffffffffff1602179055506115e8806100775f395ff3fe608060405234801561000f575f80fd5b506004361061007b575f3560e01c8063886aacf111610059578063886aacf1146100d75780638da5cb5b14610107578063a5bff9c614610125578063c75bc771146101415761007b565b8063238dafe01461007f578063328d8f721461009d5780636e409a7a146100b9575b5f80fd5b61008761015d565b6040516100949190610a14565b60405180910390f35b6100b760048036038101906100b29190610a5b565b61016f565b005b6100c161021a565b6040516100ce9190610b00565b60405180910390f35b6100f160048036038101906100ec9190610b54565b61023d565b6040516100fe9190610d29565b60405180910390f35b61010f610379565b60405161011c9190610d58565b60405180910390f35b61013f600480360381019061013a9190610b54565b61039e565b005b61015b60048036038101906101569190610d9b565b6104fc565b005b60035f9054906101000a900460ff1681565b60015f9054906101000a900473ffffffffffffffffffffffffffffffffffffffff1673ffffffffffffffffffffffffffffffffffffffff163373ffffffffffffffffffffffffffffffffffffffff16146101fe576040517f08c379a00000000000000000000000000000000000000000000000000000000081526004016101f590610e45565b60405180910390fd5b8060035f6101000a81548160ff02191690831515021790555050565b5f8054906101000a900473ffffffffffffffffffffffffffffffffffffffff1681565b606060025f8373ffffffffffffffffffffffffffffffffffffffff1673ffffffffffffffffffffffffffffffffffffffff1681526020019081526020015f20805480602002602001604051908101604052809291908181526020015f905b8282101561036e578382905f5260205f2090600302016040518060600160405290815f8201548152602001600182015481526020016002820180546102df90610e90565b80601f016020809104026020016040519081016040528092919081815260200182805461030b90610e90565b80156103565780601f1061032d57610100808354040283529160200191610356565b820191905f5260205f20905b81548152906001019060200180831161033957829003601f168201915b5050505050815250508152602001906001019061029b565b505050509050919050565b60015f9054906101000a900473ffffffffffffffffffffffffffffffffffffffff1681565b60015f9054906101000a900473ffffffffffffffffffffffffffffffffffffffff1673ffffffffffffffffffffffffffffffffffffffff163373ffffffffffffffffffffffffffffffffffffffff161461042d576040517f08c379a000000000000000000000000000000000000000000000000000000000815260040161042490610e45565b60405180910390fd5b5f73ffffffffffffffffffffffffffffffffffffffff165f8054906101000a900473ffffffffffffffffffffffffffffffffffffffff1673ffffffffffffffffffffffffffffffffffffffff16146104ba576040517f08c379a00000000000000000000000000000000000000000000000000000000081526004016104b190610f0a565b60405180910390fd5b805f806101000a81548173ffffffffffffffffffffffffffffffffffffffff021916908373ffffffffffffffffffffffffffffffffffffffff16021790555050565b60035f9054906101000a900460ff1661054a576040517f08c379a000000000000000000000000000000000000000000000000000000000815260040161054190610f72565b60405180910390fd5b6105558383836105a9565b5f610561848484610725565b90506105a36040518060400160405280600781526020017f526f756c6574650000000000000000000000000000000000000000000000000081525083836108ba565b50505050565b5f83101580156105b95750818311155b80156105c65750600e8211155b610605576040517f08c379a00000000000000000000000000000000000000000000000000000000081526004016105fc90610fda565b60405180910390fd5b5f8111610647576040517f08c379a000000000000000000000000000000000000000000000000000000000815260040161063e90611068565b60405180910390fd5b5f8054906101000a900473ffffffffffffffffffffffffffffffffffffffff1673ffffffffffffffffffffffffffffffffffffffff166370a08231336040518263ffffffff1660e01b815260040161069f9190610d58565b602060405180830381865afa1580156106ba573d5f803e3d5ffd5b505050506040513d601f19601f820116820180604052508101906106de919061109a565b811115610720576040517f08c379a00000000000000000000000000000000000000000000000000000000081526004016107179061110f565b60405180910390fd5b505050565b5f805f9054906101000a900473ffffffffffffffffffffffffffffffffffffffff1673ffffffffffffffffffffffffffffffffffffffff1663f83d17913330856040518463ffffffff1660e01b81526004016107839392919061113c565b5f604051808303815f87803b15801561079a575f80fd5b505af11580156107ac573d5f803e3d5ffd5b505050505f6107b961096c565b90505f6107c8828787876109a9565b90505f80821190508015610872575f8054906101000a900473ffffffffffffffffffffffffffffffffffffffff1673ffffffffffffffffffffffffffffffffffffffff1663a9059cbb33846040518363ffffffff1660e01b8152600401610830929190611171565b6020604051808303815f875af115801561084c573d5f803e3d5ffd5b505050506040513d601f19601f8201168201806040525081019061087091906111ac565b505b7fd25d6b7f2fbc40564b21f40e1d506ff3d5276071da39d3def6b88f6ee8a396598382846040516108a5939291906111d7565b60405180910390a18193505050509392505050565b5f604051806060016040528084815260200183815260200185815250905060025f3373ffffffffffffffffffffffffffffffffffffffff1673ffffffffffffffffffffffffffffffffffffffff1681526020019081526020015f2081908060018154018082558091505060019003905f5260205f2090600302015f909190919091505f820151815f015560208201518160010155604082015181600201908161096391906113cd565b50505050505050565b5f600f42446040516020016109829291906114bc565b604051602081830303815290604052805190602001205f1c6109a49190611514565b905090565b5f8385101580156109ba5750828511155b156109ee575f85036109da57600e826109d39190611571565b90506109f2565b6002826109e79190611571565b90506109f2565b5f90505b949350505050565b5f8115159050919050565b610a0e816109fa565b82525050565b5f602082019050610a275f830184610a05565b92915050565b5f80fd5b610a3a816109fa565b8114610a44575f80fd5b50565b5f81359050610a5581610a31565b92915050565b5f60208284031215610a7057610a6f610a2d565b5b5f610a7d84828501610a47565b91505092915050565b5f73ffffffffffffffffffffffffffffffffffffffff82169050919050565b5f819050919050565b5f610ac8610ac3610abe84610a86565b610aa5565b610a86565b9050919050565b5f610ad982610aae565b9050919050565b5f610aea82610acf565b9050919050565b610afa81610ae0565b82525050565b5f602082019050610b135f830184610af1565b92915050565b5f610b2382610a86565b9050919050565b610b3381610b19565b8114610b3d575f80fd5b50565b5f81359050610b4e81610b2a565b92915050565b5f60208284031215610b6957610b68610a2d565b5b5f610b7684828501610b40565b91505092915050565b5f81519050919050565b5f82825260208201905092915050565b5f819050602082019050919050565b5f819050919050565b610bba81610ba8565b82525050565b5f81519050919050565b5f82825260208201905092915050565b5f5b83811015610bf7578082015181840152602081019050610bdc565b5f8484015250505050565b5f601f19601f8301169050919050565b5f610c1c82610bc0565b610c268185610bca565b9350610c36818560208601610bda565b610c3f81610c02565b840191505092915050565b5f606083015f830151610c5f5f860182610bb1565b506020830151610c726020860182610bb1565b5060408301518482036040860152610c8a8282610c12565b9150508091505092915050565b5f610ca28383610c4a565b905092915050565b5f602082019050919050565b5f610cc082610b7f565b610cca8185610b89565b935083602082028501610cdc85610b99565b805f5b85811015610d175784840389528151610cf88582610c97565b9450610d0383610caa565b925060208a01995050600181019050610cdf565b50829750879550505050505092915050565b5f6020820190508181035f830152610d418184610cb6565b905092915050565b610d5281610b19565b82525050565b5f602082019050610d6b5f830184610d49565b92915050565b610d7a81610ba8565b8114610d84575f80fd5b50565b5f81359050610d9581610d71565b92915050565b5f805f60608486031215610db257610db1610a2d565b5b5f610dbf86828701610d87565b9350506020610dd086828701610d87565b9250506040610de186828701610d87565b9150509250925092565b5f82825260208201905092915050565b7f4e6f742074686520636f6e7472616374206f776e6572000000000000000000005f82015250565b5f610e2f601683610deb565b9150610e3a82610dfb565b602082019050919050565b5f6020820190508181035f830152610e5c81610e23565b9050919050565b7f4e487b71000000000000000000000000000000000000000000000000000000005f52602260045260245ffd5b5f6002820490506001821680610ea757607f821691505b602082108103610eba57610eb9610e63565b5b50919050565b7f43415320546f6b656e206164647265737320616c7265616479207365740000005f82015250565b5f610ef4601d83610deb565b9150610eff82610ec0565b602082019050919050565b5f6020820190508181035f830152610f2181610ee8565b9050919050565b7f436f6e74726163742069732064697361626c65640000000000000000000000005f82015250565b5f610f5c601483610deb565b9150610f6782610f28565b602082019050919050565b5f6020820190508181035f830152610f8981610f50565b9050919050565b7f496e76616c69642062657474696e672072616e676500000000000000000000005f82015250565b5f610fc4601583610deb565b9150610fcf82610f90565b602082019050919050565b5f6020820190508181035f830152610ff181610fb8565b9050919050565b7f42657420616d6f756e74206d7573742062652067726561746572207468616e205f8201527f3000000000000000000000000000000000000000000000000000000000000000602082015250565b5f611052602183610deb565b915061105d82610ff8565b604082019050919050565b5f6020820190508181035f83015261107f81611046565b9050919050565b5f8151905061109481610d71565b92915050565b5f602082840312156110af576110ae610a2d565b5b5f6110bc84828501611086565b91505092915050565b7f496e73756666696369656e7420746f6b656e7320666f722062657400000000005f82015250565b5f6110f9601b83610deb565b9150611104826110c5565b602082019050919050565b5f6020820190508181035f830152611126816110ed565b9050919050565b61113681610ba8565b82525050565b5f60608201905061114f5f830186610d49565b61115c6020830185610d49565b611169604083018461112d565b949350505050565b5f6040820190506111845f830185610d49565b611191602083018461112d565b9392505050565b5f815190506111a681610a31565b92915050565b5f602082840312156111c1576111c0610a2d565b5b5f6111ce84828501611198565b91505092915050565b5f6060820190506111ea5f83018661112d565b6111f76020830185610a05565b611204604083018461112d565b949350505050565b7f4e487b71000000000000000000000000000000000000000000000000000000005f52604160045260245ffd5b5f819050815f5260205f209050919050565b5f6020601f8301049050919050565b5f82821b905092915050565b5f600883026112957fffffffffffffffffffffffffffffffffffffffffffffffffffffffffffffffff8261125a565b61129f868361125a565b95508019841693508086168417925050509392505050565b5f6112d16112cc6112c784610ba8565b610aa5565b610ba8565b9050919050565b5f819050919050565b6112ea836112b7565b6112fe6112f6826112d8565b848454611266565b825550505050565b5f90565b611312611306565b61131d8184846112e1565b505050565b5b81811015611340576113355f8261130a565b600181019050611323565b5050565b601f8211156113855761135681611239565b61135f8461124b565b8101602085101561136e578190505b61138261137a8561124b565b830182611322565b50505b505050565b5f82821c905092915050565b5f6113a55f198460080261138a565b1980831691505092915050565b5f6113bd8383611396565b9150826002028217905092915050565b6113d682610bc0565b67ffffffffffffffff8111156113ef576113ee61120c565b5b6113f98254610e90565b611404828285611344565b5f60209050601f831160018114611435575f8415611423578287015190505b61142d85826113b2565b865550611494565b601f19841661144386611239565b5f5b8281101561146a57848901518255600182019150602085019450602081019050611445565b868310156114875784890151611483601f891682611396565b8355505b6001600288020188555050505b505050505050565b5f819050919050565b6114b66114b182610ba8565b61149c565b82525050565b5f6114c782856114a5565b6020820191506114d782846114a5565b6020820191508190509392505050565b7f4e487b71000000000000000000000000000000000000000000000000000000005f52601260045260245ffd5b5f61151e82610ba8565b915061152983610ba8565b925082611539576115386114e7565b5b828206905092915050565b7f4e487b71000000000000000000000000000000000000000000000000000000005f52601160045260245ffd5b5f61157b82610ba8565b915061158683610ba8565b925082820261159481610ba8565b915082820484148315176115ab576115aa611544565b5b509291505056fea264697066735822122029878c7aefb81d86573cd865cc6c0492f1ca4b8b3e0d238672dafb8223e79e9864736f6c63430008140033",
  "linkReferences": {},
  "deployedLinkReferences": {}
}